:020000040800F2
:1000000000200020815C0008495A0008515A00086D
:1000100000000000000000000000000000000000E0
:10002000000000000000000000000000595A000815
:100030000000000000000000635A00086D5A00082C
:10004000D15C0008D15C0008D15C0008D15C0008DC
:10005000D15C0008D15C0008D15C0008D15C0008CC
:1000600000000000795A0008915A0008D15C00088D
:10007000D15C0008D15C0008D15C0008D15C0008AC
:10008000D15C0008D15C0008D15C0008D15C00089C
:1000900000000000D15C0008A95A0008D15C0008EB
:1000A000D15C0008D15C0008D15C0008D15C00087C
:0C00B000D15C0008D15C000800000000DA
:1000BC00002243088B4274D303098B425FD3030A9B
:1000CC008B4244D3030B8B4228D3030C8B420DD3AE
:1000DC00FF22090212BA030C8B4202D3121209023C
:1000EC0065D0030B8B4219D300E0090AC30B8B427A
:1000FC0001D3CB03C01A5241830B8B4201D38B0328
:10010C00C01A5241430B8B4201D34B03C01A5241CC
:10011C00030B8B4201D30B03C01A5241C30A8B420F
:10012C0001D3CB02C01A5241830A8B4201D38B02FA
:10013C00C01A5241430A8B4201D34B02C01A52419E
:10014C00030A8B4201D30B02C01A5241CDD2C30910
:10015C008B4201D3CB01C01A524183098B4201D38C
:10016C008B01C01A524143098B4201D34B01C01A77
:10017C00524103098B4201D30B01C01A5241C308EF
:10018C008B4201D3CB00C01A524183088B4201D35E
:10019C008B00C01A524143088B4201D34B00C01A4A
:1001AC005241411A00D20146524110467047FFE7B6
:1001BC0001B5002000F0F0F802BDC0460029F7D0D0
:1001CC0076E7704703460B437FD4002243088B42EB
:1001DC0074D303098B425FD3030A8B4244D3030BC2
:1001EC008B4228D3030C8B420DD3FF22090212BA87
:1001FC00030C8B4202D31212090265D0030B8B4203
:10020C0019D300E0090AC30B8B4201D3CB03C01AEC
:10021C005241830B8B4201D38B03C01A5241430BC7
:10022C008B4201D34B03C01A5241030B8B4201D3B7
:10023C000B03C01A5241C30A8B4201D3CB02C01A22
:10024C005241830A8B4201D38B02C01A5241430A9A
:10025C008B4201D34B02C01A5241030A8B4201D389
:10026C000B02C01A5241CDD2C3098B4201D3CB0130
:10027C00C01A524183098B4201D38B01C01A5241DF
:10028C0043098B4201D34B01C01A524103098B42E3
:10029C0001D30B01C01A5241C3088B4201D3CB00CE
:1002AC00C01A524183088B4201D38B00C01A5241B1
:1002BC0043088B4201D34B00C01A5241411A00D261
:1002CC0001465241104670475DE0CA0F00D04942CA
:1002DC00031000D34042534000229C4603098B423A
:1002EC002DD3030A8B4212D3FC22890112BA030AC2
:1002FC008B420CD3890192118B4208D38901921144
:10030C008B4204D389013AD0921100E08909C309C8
:10031C008B4201D3CB01C01A524183098B4201D3CA
:10032C008B01C01A524143098B4201D34B01C01AB5
:10033C00524103098B4201D30B01C01A5241C3082D
:10034C008B4201D3CB00C01A524183088B4201D39C
:10035C008B00C01A5241D9D243088B4201D34B00B7
:10036C00C01A5241411A00D20146634652415B10F9
:10037C00104601D34042002B00D5494270476346DA
:10038C005B1000D3404201B5002000F005F802BD1F
:10039C000029F8D016E770477047C0468446100015
:1003AC0062468C461900634600E0C0461FB50AF051
:1003BC0087F8002801D40021C8421FBD10B509F0F0
:1003CC00C9FF4042013010BD10B50AF079F8002881
:1003DC0001DB002010BD012010BDC04610B50AF095
:1003EC006FF8002801DD002010BD012010BDC046B3
:1003FC0010B509F0F5FF002801DC002010BD01202C
:10040C0010BDC04610B509F0EBFF002801DA002042
:10041C0010BD012010BDC046844608006146FFE7B0
:10042C001FB508F03BFF002801D40021C8421FBDB6
:10043C0010B508F0C3FE4042013010BD10B508F0F5
:10044C002DFF002801DB002010BD012010BDC0468F
:10045C0010B508F023FF002801DD002010BD01209D
:10046C0010BDC04610B508F0D1FE002801DC0020FC
:10047C0010BD012010BDC04610B508F0C7FE002805
:10048C0001DA002010BD012010BDC046002B11D197
:10049C00002A0FD1002900D1002802D00021C94325
:1004AC00080007B4024802A14018029003BDC046E0
:1004BC00E9FEFFFF03B4684601B5029808F08EFA16
:1004CC00019B9E4602B00CBC7047C0461C21012308
:1004DC001B04984201D3000C10391B0A984201D31B
:1004EC00000A08391B09984201D30009043902A2F9
:1004FC00105C40187047C046040302020101010160
:10050C00000000000000000010B5002903D1FFF727
:10051C00DDFF203002E00800FFF7D8FF10BDC04619
:10052C000448054B10B5834203D0044B002B00D07C
:10053C00984710BD700000207000002000000000E3
:10054C0006480749091A8B10C90FC91810B549106C
:10055C0003D0044B002B00D0984710BD7000002036
:10056C00700000200000000010B5074C2378002B11
:10057C0009D1FFF7D5FF054B002B02D0044800E052
:10058C0000BF0123237010BD70000020000000008C
:10059C0034B80008054B10B5002B03D004490548AE
:1005AC0000E000BFFFF7CCFF10BDC046000000000C
:1005BC007400002034B8000880B500AFC046BD46BA
:1005CC0080BD80B582B000AF78607B68002B01D114
:1005DC0001234AE07B683D229B5CDBB2002B07D1F8
:1005EC007B683C22002199547B68180005F0AEF81A
:1005FC007B683D22022199547B681A687B6804331E
:10060C001900100000F00AFD7B6848220121995462
:10061C007B683E22012199547B683F220121995429
:10062C007B684022012199547B6841220121995415
:10063C007B684222012199547B6843220121995401
:10064C007B684422012199547B68452201219954ED
:10065C007B684622012199547B68472201219954D9
:10066C007B683D220121995400231800BD4602B03D
:10067C0080BD000080B584B000AF78607B683D22FF
:10068C009B5CDBB2012B01D0012335E07B683D2262
:10069C00022199547B681B68194A93420AD07B68E3
:1006AC001A688023DB059A4204D07B681B68154AC4
:1006BC00934216D17B681B689B68134A1340FB60FE
:1006CC00FB68062B16D0FA6880235B029A4211D085
:1006DC007B681B681A687B681B6801210A431A60D7
:1006EC0008E07B681B681A687B681B6801210A4359
:1006FC001A6000E0C04600231800BD4604B080BD5F
:10070C00002C0140000400400700010080B584B0BB
:10071C0000AF78607B683D229B5CDBB2012B01D083
:10072C0001233DE07B683D22022199547B681B68C4
:10073C00DA687B681B6801210A43DA607B681B68F6
:10074C00194A93420AD07B681A688023DB059A42C7
:10075C0004D07B681B68154A934216D17B681B68D2
:10076C009B68134A1340FB60FB68062B16D0FA6893
:10077C0080235B029A4211D07B681B681A687B68E5
:10078C001B6801210A431A6008E07B681B681A6821
:10079C007B681B6801210A431A6000E0C0460023F5
:1007AC001800BD4604B080BD002C01400004004080
:1007BC000700010080B582B000AF78607B68002B29
:1007CC0001D101234AE07B683D229B5CDBB2002B0C
:1007DC0007D17B683C22002199547B68180004F0F7
:1007EC00D1FF7B683D22022199547B681A687B6893
:1007FC0004331900100000F011FC7B684822012121
:10080C0099547B683E22012199547B683F22012137
:10081C0099547B684022012199547B684122012123
:10082C0099547B684222012199547B68432201210F
:10083C0099547B684422012199547B6845220121FB
:10084C0099547B684622012199547B6847220121E7
:10085C0099547B683D220121995400231800BD4610
:10086C0002B080BD80B584B000AF786039603B6861
:10087C00002B08D17B683E229B5CDBB2013B5A1EED
:10088C009341DBB237E03B68042B08D17B683F22F5
:10089C009B5CDBB2013B5A1E9341DBB22BE03B6805
:1008AC00082B08D17B6840229B5CDBB2013B5A1EB3
:1008BC009341DBB21FE03B680C2B08D17B684122D3
:1008CC009B5CDBB2013B5A1E9341DBB213E03B68ED
:1008DC00102B08D17B6842229B5CDBB2013B5A1E79
:1008EC009341DBB207E07B6843229B5CDBB2013BAC
:1008FC005A1E9341DBB2002B01D0012381E03B68EF
:10090C00002B04D17B683E220221995423E03B68E2
:10091C00042B04D17B683F22022199541BE03B68D5
:10092C00082B04D17B6840220221995413E03B68C8
:10093C000C2B04D17B684122022199540BE03B68BB
:10094C00102B04D17B6842220221995403E07B686E
:10095C004322022199547B681B68396801221800D4
:10096C0000F018FF7B681B68284A934209D07B680B
:10097C001B68274A934204D07B681B68254A934224
:10098C0001D1012300E00023002B08D07B681B68F9
:10099C005A6C7B681B68802109020A435A647B6885
:1009AC001B681A4A93420AD07B681A688023DB05BD
:1009BC009A4204D07B681B68174A934216D17B6815
:1009CC001B689B68154A1340FB60FB68062B16D00E
:1009DC00FA6880235B029A4211D07B681B681A6804
:1009EC007B681B6801210A431A6008E07B681B685E
:1009FC001A687B681B6801210A431A6000E0C04634
:100A0C0000231800BD4604B080BDC046002C014038
:100A1C000044014000480140000400400700010070
:100A2C0080B584B000AF78607B681B68DB68FB60C6
:100A3C007B681B681B69BB60BB680222134021D01A
:100A4C00FB68022213401DD07B681B6803225242B4
:100A5C001A617B6801221A777B681B689B690322E9
:100A6C00134004D07B68180000F0C0FA07E07B68E4
:100A7C00180000F0B3FA7B68180000F0BFFA7B682E
:100A8C0000221A77BB680422134022D0FB68042290
:100A9C0013401ED07B681B68052252421A617B688A
:100AAC0002221A777B681B689A69C0239B0013404B
:100ABC0004D07B68180000F099FA07E07B681800F6
:100ACC0000F08CFA7B68180000F098FA7B68002222
:100ADC001A77BB680822134021D0FB680822134008
:100AEC001DD07B681B68092252421A617B68042264
:100AFC001A777B681B68DB690322134004D07B6880
:100B0C00180000F073FA07E07B68180000F066FA32
:100B1C007B68180000F072FA7B6800221A77BB68B9
:100B2C001022134022D0FB68102213401ED07B6889
:100B3C001B68112252421A617B6808221A777B6863
:100B4C001B68DA69C0239B00134004D07B68180033
:100B5C0000F04CFA07E07B68180000F03FFA7B6865
:100B6C00180000F04BFA7B6800221A77BB68012250
:100B7C0013400CD0FB680122134008D07B681B6823
:100B8C00022252421A617B68180004F09BFBBB687E
:100B9C008022134004D1BA6880239B0113400BD0F0
:100BAC00FB688022134007D07B681B681E4A1A61C1
:100BBC007B68180000F082FEBA6880235B0013404B
:100BCC000BD0FB688022134007D07B681B68174A48
:100BDC001A617B68180000F079FEBB684022134054
:100BEC000CD0FB684022134008D07B681B68412264
:100BFC0052421A617B68180000F008FABB68202288
:100C0C0013400CD0FB682022134008D07B681B6873
:100C1C00212252421A617B68180000F047FEC04640
:100C2C00BD4604B080BDC0467FDFFFFFFFFEFFFF67
:100C3C0080B586B000AFF860B9607A601723FB18F6
:100C4C0000221A70FB683C229B5C012B01D1022311
:100C5C00E5E0FB683C22012199547B68142B00D9F8
:100C6C00D1E07B689A00704BD3181B689F46FB68D9
:100C7C001B68BA681100180000F054FAFB681B6876
:100C8C009A69FB681B6808210A439A61FB681B6818
:100C9C009A69FB681B6804218A439A61FB681B688C
:100CAC009969BB681A69FB681B680A439A61AFE0D3
:100CBC00FB681B68BA681100180000F0B3FAFB68F7
:100CCC001B689A69FB681B68802109010A439A61B9
:100CDC00FB681B689A69FB681B6854490A409A6157
:100CEC00FB681B689969BB681B691A02FB681B6867
:100CFC000A439A618CE0FB681B68BA681100180003
:100D0C0000F00EFBFB681B68DA69FB681B680821A6
:100D1C000A43DA61FB681B68DA69FB681B6804210B
:100D2C008A43DA61FB681B68D969BB681A69FB687E
:100D3C001B680A43DA616BE0FB681B68BA68110038
:100D4C00180000F06FFBFB681B68DA69FB681B6816
:100D5C00802109010A43DA61FB681B68DA69FB68C8
:100D6C001B6832490A40DA61FB681B68D969BB68A9
:100D7C001B691A02FB681B680A43DA6148E0FB68CE
:100D8C001B68BA681100180000F0B0FBFB681B6808
:100D9C005A6DFB681B6808210A435A65FB681B687F
:100DAC005A6DFB681B6804218A435A65FB681B68F3
:100DBC00596DBB681A69FB681B680A435A6527E0C2
:100DCC00FB681B68BA681100180000F0E9FBFB68AF
:100DDC001B685A6DFB681B68802109010A435A6520
:100DEC00FB681B685A6DFB681B6810490A405A6502
:100DFC00FB681B68596DBB681B691A02FB681B6892
:100E0C000A435A6504E01723FB1801221A70C046E6
:100E1C00FB683C22002199541723FB181B781800FF
:100E2C00BD4606B080BDC046BCB80008FFFBFFFF46
:100E3C0080B584B000AF786039600F23FB180022B6
:100E4C001A707B683C229B5C012B01D10223BCE015
:100E5C007B683C22012199547B683D2202219954E4
:100E6C007B681B689B68BB60BB685A4A1340BB60BD
:100E7C00BB68594A1340BB607B681B68BA689A60B0
:100E8C003B681B6880229201934240D080229201E1
:100E9C00934200D988E080225201934200D188E02D
:100EAC0080225201934200D97EE0702B18D000D9D9
:100EBC007AE0602B4FD000D976E0502B3BD000D994
:100ECC0072E0402B57D000D96EE0302B63D06BD83A
:100EDC00202B60D068D8002B5DD0102B5BD063E04A
:100EEC007B6818683B6899683B685A683B68DB68A4
:100EFC0000F030FC7B681B689B68BB60BB6877228A
:100F0C001343BB607B681B68BA689A6052E07B68CD
:100F1C0018683B6899683B685A683B68DB6800F066
:100F2C0019FC7B681B689A687B681B688021C90167
:100F3C000A439A603EE07B6818683B6859683B68D6
:100F4C00DB681A0000F08AFB7B681B6850211800D4
:100F5C0000F0E4FB2EE07B6818683B6859683B683E
:100F6C00DB681A0000F0A8FB7B681B686021180086
:100F7C0000F0D4FB1EE07B6818683B6859683B683E
:100F8C00DB681A0000F06AFB7B681B6840211800C4
:100F9C0000F0C4FB0EE07B681A683B681B68190004
:100FAC00100000F0BBFB05E00F23FB1801221A70A8
:100FBC0000E0C0467B683D22012199547B683C22AD
:100FCC00002199540F23FB181B781800BD4604B060
:100FDC0080BDC04688FFCEFFFF00FFFF80B582B00A
:100FEC0000AF7860C046BD4602B080BD80B582B00F
:100FFC0000AF7860C046BD4602B080BD80B582B0FF
:10100C0000AF7860C046BD4602B080BD80B582B0EE
:10101C0000AF7860C046BD4602B080BD80B584B0DC
:10102C0000AF786039607B681B68FB607B68374A6F
:10103C00934208D07A688023DB059A4203D07B6800
:10104C00334A934208D1FB6870229343FB603B68A0
:10105C005B68FA681343FB607B682C4A934214D09C
:10106C007A688023DB059A420FD07B68284A93422A
:10107C000BD07B68274A934207D07B68264A934261
:10108C0003D07B68254A934208D1FB68244A13405D
:10109C00FB603B68DB68FA681343FB60FB688022EB
:1010AC0093431A003B685B691343FB607B68FA68E7
:1010BC001A603B689A687B68DA623B681A687B68DE
:1010CC009A627B68114A934207D07B68124A93421A
:1010DC0003D07B68114A934203D13B681A697B6841
:1010EC001A637B6801225A617B681B6901221340D9
:1010FC00012B06D17B681B69012293431A007B6884
:10110C001A61C046BD4604B080BDC046002C0140EB
:10111C000004004000200040004401400048014011
:10112C00FFFCFFFF80B586B000AF786039607B684C
:10113C001B6A7B617B681B6A012293431A007B68E4
:10114C001A627B685B683B617B689B69FB60FB6830
:10115C002E4A1340FB60FB6803229343FB603B6801
:10116C001B68FA681343FB607B69022293437B6123
:10117C003B689B687A6913437B617B68244A934282
:10118C0007D07B68234A934203D07B68224A934260
:10119C000CD17B69082293437B613B68DB687A69DD
:1011AC0013437B617B69042293437B617B68184A00
:1011BC00934207D07B68174A934203D07B68164A48
:1011CC00934211D13B69154A13403B613B69144A68
:1011DC0013403B613B685B693A6913433B613B6875
:1011EC009B693A6913433B617B683A695A607B6837
:1011FC00FA689A613B685A687B685A637B687A69BB
:10120C001A62C046BD4606B080BDC0468FFFFEFFC9
:10121C00002C01400044014000480140FFFEFFFF4C
:10122C00FFFDFFFF80B586B000AF786039607B684A
:10123C001B6A7B617B681B6A102293431A007B68D4
:10124C001A627B685B683B617B689B69FB60FB682F
:10125C002C4A1340FB60FB682B4A1340FB603B6835
:10126C001B681B02FA681343FB607B6920229343C3
:10127C007B613B689B681B017A6913437B617B68CC
:10128C00224A93420DD17B69802293437B613B6858
:10129C00DB681B017A6913437B617B6940229343B2
:1012AC007B617B68194A934207D07B68184A93424A
:1012BC0003D07B68174A934213D13B69164A1340FB
:1012CC003B613B69154A13403B613B685B699B0082
:1012DC003A6913433B613B689B699B003A69134332
:1012EC003B617B683A695A607B68FA689A613B6833
:1012FC005A687B689A637B687A691A62C046BD46F5
:10130C0006B080BDFF8FFFFEFFFCFFFF002C0140ED
:10131C000044014000480140FFFBFFFFFFF7FFFFC7
:10132C0080B586B000AF786039607B681B6A7B61E2
:10133C007B681B6A314A1A407B681A627B685B685F
:10134C003B617B68DB69FB60FB682D4A1340FB60EB
:10135C00FB6803229343FB603B681B68FA681343EA
:10136C00FB607B69274A13407B613B689B681B02CF
:10137C007A6913437B617B68234A93420DD17B6965
:10138C00224A13407B613B68DB681B027A6913437A
:10139C007B617B691E4A13407B617B681A4A9342CE
:1013AC0007D07B681B4A934203D07B681A4A93424E
:1013BC0013D13B69194A13403B613B69184A1340EE
:1013CC003B613B685B691B013A6913433B613B68BA
:1013DC009B691B013A6913433B617B683A695A600C
:1013EC007B68FA68DA613B685A687B68DA637B6809
:1013FC007A691A62C046BD4606B080BDFFFEFFFF8B
:10140C008FFFFEFFFFFDFFFF002C0140FFF7FFFFEA
:10141C00FFFBFFFF0044014000480140FFEFFFFFCE
:10142C00FFDFFFFF80B586B000AF786039607B6866
:10143C001B6A3B617B681B6A244A1A407B681A62F0
:10144C007B685B687B617B68DB69FB60FB68204ABF
:10145C001340FB60FB681F4A1340FB603B681B6832
:10146C001B02FA681343FB603B691B4A13403B6148
:10147C003B689B681B033A6913433B617B68174AC3
:10148C00934207D07B68164A934203D07B68154A77
:10149C00934209D17B69144A13407B613B685B69B9
:1014AC009B017A6913437B617B687A695A607B681C
:1014BC00FA68DA613B685A687B681A647B683A6937
:1014CC001A62C046BD4606B080BDC046FFEFFFFFA6
:1014DC00FF8FFFFEFFFCFFFFFFDFFFFF002C014033
:1014EC000044014000480140FFBFFFFF80B586B0BB
:1014FC0000AF786039607B681B6A3B617B681B6A54
:10150C00214A1A407B681A627B685B687B617B6846
:10151C005B6DFB60FB681D4A1340FB603B681B68FE
:10152C00FA681343FB603B69194A13403B613B6803
:10153C009B681B043A6913433B617B68154A9342D1
:10154C0007D07B68144A934203D07B68134A9342BA
:10155C0009D17B690C4A13407B613B685B691B02B8
:10156C007A6913437B617B687A695A607B68FA6895
:10157C005A653B685A687B689A657B683A691A6257
:10158C00C046BD4606B080BDFFFFFEFF8FFFFEFFCD
:10159C00FFFFFDFF002C01400044014000480140CA
:1015AC0080B586B000AF786039607B681B6A3B61A0
:1015BC007B681B6A224A1A407B681A627B685B68EC
:1015CC007B617B685B6DFB60FB681E4A1340FB60B4
:1015DC003B681B681B02FA681343FB603B691A4AA1
:1015EC0013403B613B689B681B053A6913433B61A5
:1015FC007B68164A934207D07B68154A934203D006
:10160C007B68144A934209D17B69134A13407B616E
:10161C003B685B699B027A6913437B617B687A69DF
:10162C005A607B68FA685A653B685A687B68DA6569
:10163C007B683A691A62C046BD4606B080BDC0469A
:10164C00FFFFEFFFFF8FFFFEFFFFDFFF002C0140CE
:10165C000044014000480140FFFFFBFF80B586B00D
:10166C0000AFF860B9607A60FB681B6A7B61FB684D
:10167C001B6A012293431A00FB681A62FB689B6980
:10168C003B613B69F02293433B617B681B013A69E8
:10169C0013433B617B690A2293437B617A69BB6884
:1016AC0013437B61FB683A699A61FB687A691A6239
:1016BC00C046BD4606B080BD80B586B000AFF860B0
:1016CC00B9607A60FB681B6A7B61FB681B6A10223D
:1016DC0093431A00FB681A62FB689B693B613B6988
:1016EC000D4A13403B617B681B033A6913433B6112
:1016FC007B69A02293437B61BB681B017A6913430E
:10170C007B61FB683A699A61FB687A691A62C04628
:10171C00BD4606B080BDC046FF0FFFFF80B584B04C
:10172C0000AF786039607B689B68FB60FB68084A97
:10173C001340FB603A68FB68134307221343FB60BA
:10174C007B68FA689A60C046BD4604B080BDC0464E
:10175C008FFFCFFF80B586B000AFF860B9607A60BC
:10176C003B60FB689B687B617B69094A13407B612A
:10177C003B681A027B681A43BB6813437A691343AC
:10178C007B61FB687A699A60C046BD4606B080BD35
:10179C00FF00FFFF80B586B000AFF860B9607A60DB
:1017AC00BB681F22134001229A4013007B61FB6827
:1017BC001B6A7A69D2431A40FB681A62FB681A6A80
:1017CC00BB681F210B40796899400B001A43FB68DA
:1017DC001A62C046BD4606B080BD000080B584B01C
:1017EC0000AF786039607B683C229B5C012B01D197
:1017FC00022350E07B683C22012199547B683D22F6
:10180C00022199547B681B685B68FB607B681B68D2
:10181C009B68BB607B681B68214A934208D1FB68BC
:10182C00204A1340FB603B685B68FA681343FB601B
:10183C00FB6870229343FB603B681B68FA68134398
:10184C00FB607B681B68FA685A607B681B68144AEB
:10185C0093420AD07B681A688023DB059A4204D035
:10186C007B681B68104A93420CD1BB68802293435F
:10187C00BB603B689B68BA681343BB607B681B68A2
:10188C00BA689A607B683D22012199547B683C229E
:10189C000021995400231800BD4604B080BDC046F9
:1018AC00002C0140FFFF0FFF0004004080B582B008
:1018BC0000AF7860C046BD4602B080BD80B582B036
:1018CC0000AF7860C046BD4602B080BD80B582B026
:1018DC0000AF7860C046BD4602B080BD80B582B016
:1018EC0000AF786039607B681B68054A1A403B681A
:1018FC001A437B681A60C046BD4602B080BDC04624
:10190C00FFFF3FFE80B582B000AF78607B681A683D
:10191C00E0235B0413401800BD4602B080BD80B5C7
:10192C0084B000AFF860B9607A60FB685B69BA6834
:10193C0004210A40072191400A00D2431A40BB6897
:10194C0004210B40796899400B001A43FB685A61DB
:10195C00C046BD4604B080BD80B582B000AF786093
:10196C0039607B685B693A6804210A400721914021
:10197C000A001A403B6804210B40DA40130018009F
:10198C00BD4602B080BD80B582B000AF78607B6888
:10199C00DA68C0231B01134001D1012300E00023AE
:1019AC001800BD4602B080BD80B584B000AFF860B1
:1019BC00B9607A60FB689B6ABA681F210A400F21E4
:1019CC0091400A00D2431A407B689B0E0F211940AC
:1019DC00BB681F20034099400B001A43FB689A62B6
:1019EC00C046BD4604B080BD80B582B000AF786003
:1019FC0039607B689A6A3B685B035B0B1A437B68B4
:101A0C009A62C046BD4602B080BD80B582B000AFC0
:101A1C00786039607B689B6A3A685203520BD243F8
:101A2C001A407B689A62C046BD4602B080BD000079
:101A3C0080B584B000AFF860B9607A60FB685B6910
:101A4C00BA681202D2431A40BB681B0279680B4079
:101A5C0004490B401A43FB685A61C046BD4604B0AA
:101A6C0080BDC04600FFFF0780B582B000AF786034
:101A7C007B689B68054A1340802252051A437B6899
:101A8C009A60C046BD4602B080BDC046E8FFFF6FFD
:101A9C0080B582B000AF78607B689A6880235B0564
:101AAC001A4080235B059A4201D1012300E00023F8
:101ABC001800BD4602B080BD80B582B000AF786022
:101ACC007B689B68044A134001221A437B689A6026
:101ADC00C046BD4602B080BDE8FFFF7F80B582B036
:101AEC0000AF78607B689B68044A134002221A435B
:101AFC007B689A60C046BD4602B080BDE8FFFF7FA0
:101B0C0080B582B000AF78607B689B68012213407F
:101B1C00012B01D1012300E000231800BD4602B0C7
:101B2C0080BD80B582B000AF78607B689B68022274
:101B3C001340022B01D1012300E000231800BD4605
:101B4C0002B080BD80B582B000AF78607B689B68C6
:101B5C00044A134004221A437B689A60C046BD466F
:101B6C0002B080BDE8FFFF7F80B582B000AF786027
:101B7C007B689B6804221340042B01D1012300E0F5
:101B8C0000231800BD4602B080BD000080B588B0AF
:101B9C0000AF78601F23FB1800221A700023BB6172
:101BAC0000237B610023FB607B68002B01D10123A8
:101BBC007FE17B689B6D002B0AD17B68180003F0DA
:101BCC0059FC7B680022DA657B6854220021995409
:101BDC007B681B681800FFF75BFF031E15D17B6841
:101BEC001B681800FFF740FFB44B1B68B449180082
:101BFC00FEF75EFA030001335B00FB6002E0FB685A
:101C0C00013BFB60FB68002BF9D17B681B6818005B
:101C1C00FFF73EFF031E0FD17B689B6D10221A430A
:101C2C007B689A657B68DB6D01221A437B68DA65F9
:101C3C001F23FB1801221A707B681B681800FFF722
:101C4C0093FF03003B617B689B6D1022134000D017
:101C5C0022E13B69002B00D01EE17B689B6D994A09
:101C6C00134002221A437B689A657B681B68180034
:101C7C00FFF746FF031E00D0ADE07B689A687B68D7
:101C8C001B7E9B031A437B685B7EDB031A437B68DA
:101C9C009B7E5B031A437B681B6B002B02D080235B
:101CAC005B0100E000231A437B68DB681A437B6806
:101CBC001B69002B04DA7B681B695B005B0801E085
:101CCC0080239B031A437B682C215B5C5B001343D2
:101CDC00BA691343BB617B6820229B5C012B15D135
:101CEC007B689B7E002B05D1BB698022520213437B
:101CFC00BB610BE07B689B6D20221A437B689A6565
:101D0C007B68DB6D01221A437B68DA657B685B6A52
:101D1C00002B0AD07B685A6AE0235B001A407B6870
:101D2C009B6A1343BA691343BB617B681B68DB680E
:101D3C00654A134019007B681B68BA690A43DA606C
:101D4C007B685B689B0F9A077B68DB6C13437A6933
:101D5C0013437B617B683C229B5C012B11D17B681C
:101D6C005B689B0F9A077B681B6C1A437B685B6CE8
:101D7C001A437B689B6C1A437B6913430122134300
:101D8C007B617B681B681B69504A134019007B6898
:101D9C001B687A690A431A617B685A68C0231B0660
:101DAC009A4218D07B685A688023DB059A4212D07D
:101DBC007B685A6880231B069A420CD0444B1B68E4
:101DCC00444A134019007B685A68F0239B031A405D
:101DDC003F4B0A431A607B6818687B685B6B1A0080
:101DEC000021FFF79CFD7B6818687B689B6B3A4968
:101DFC001A00FFF794FD7B681B69002B09D17B68E7
:101E0C001B689A6A7B681B68102149420A439A62D4
:101E1C0018E07B681A6980239B039A4212D17B6875
:101E2C001B689B6A7B68DB69013B9B001C2213408F
:101E3C00102252429A4011007B681A6E7B681B6814
:101E4C000A439A627B681B6800211800FFF784FD27
:101E5C0002007B685B6B9A420BD17B680022DA65CF
:101E6C007B689B6D0322934301221A437B689A651E
:101E7C001CE07B689B6D1222934310221A437B68F3
:101E8C009A657B68DB6D01221A437B68DA651F2338
:101E9C00FB1801221A7009E07B689B6D10221A4313
:101EAC007B689A651F23FB1801221A701F23FB18ED
:101EBC001B781800BD4608B080BDC046000000204D
:101ECC00400D0300FDFEFFFF0102DEFF02FCFF1FC1
:101EDC0008270140FFFFC3FF04FFFF07B0B586B022
:101EEC0000AFF860B9607A60FB681B681800FFF7F8
:101EFC003BFE031E6CD1FB6854229B5C012B01D171
:101F0C0002236CE0FB68542201219954FB681B6886
:101F1C00DB680122134013D1FB681B681800FFF724
:101F2C00EFFD031E04D0FB681B681800FFF7D6FDFD
:101F3C00FB681B68DA68FB681B6801210A43DA60DE
:101F4C0017257C19FB68180000F046FA0300237073
:101F5C002C003B191B78002B3ED1FB689B6D224A51
:101F6C001340802252001A43FB689A65FB680022DA
:101F7C00DA65FB681B6D1D4ADA62FB681B6D1C4A37
:101F8C001A63FB681B6D1B4A5A63FB681B681C2297
:101F9C001A60FB68542200219954FB681B685A682C
:101FAC00FB681B6810210A435A60FB68186DFB68BC
:101FBC001B6840331900BA683C197B6801F074FD4A
:101FCC0003002370FB681B681800FFF7BBFD03E0E0
:101FDC001723FB1802221A701723FB181B78180002
:101FEC00BD4606B0B0BDC046FEF0FFFFAD250008F3
:101FFC00752600089326000880B582B000AF786083
:10200C00C046BD4602B080BD80B582B000AF7860DE
:10201C00C046BD4602B080BD80B582B000AF7860CE
:10202C00C046BD4602B080BD80B586B000AF7860BA
:10203C0039601723FB1800221A700023FB607B68A1
:10204C0054229B5C012B01D10223C0E17B685422FA
:10205C00012199547B681B681800FFF785FD031E4E
:10206C0000D0A3E13B685B68022B00D143E17B68A5
:10207C001A6980231B069A4204D07B681B69C14AEB
:10208C00934208D17B681A683B681B6819001000E2
:10209C00FFF7AAFCC9E07B681A6E3B685B681F21DE
:1020AC000B400F2199400B00DB43134019003B6898
:1020BC001B685B035B0B05D13B681B689B0E1F22E7
:1020CC00134098E03B681B680122134000D091E05C
:1020DC003B681B680222134000D089E03B681B68F8
:1020EC000422134000D081E03B681B680822134097
:1020FC0000D079E03B681B681022134000D071E0DF
:10210C003B681B682022134000D069E03B681B68C9
:10211C004022134000D061E03B681B6880221340D2
:10212C0000D059E03B681A6880235B00134051D102
:10213C003B681A6880239B00134049D13B681A689E
:10214C008023DB00134041D13B681A6880231B01BC
:10215C00134039D13B681A6880235B01134031D19D
:10216C003B681A6880239B01134029D13B681A688D
:10217C008023DB01134021D13B681A6880231B02AA
:10218C00134019D13B681A6880235B02134011D1AC
:10219C003B681A6880239B02134009D13B681A687C
:1021AC008023DB02134001D0122324E0002322E021
:1021BC00112320E010231EE00F231CE00E231AE055
:1021CC000D2318E00C2316E00B2314E00A2312E075
:1021DC00092310E008230EE007230CE006230AE095
:1021EC00052308E0042306E0032304E0022302E0B5
:1021FC00012300E000233A6852681F2002409340FC
:10220C000A001A437B681A663B685B689B085A1C79
:10221C007B68DB699A4208D87B6818683B68596808
:10222C003B681B681A00FFF7BFFB7B6818683B68AC
:10223C0019683B689B681A00FFF7FAFB3B681B6840
:10224C00002B00DBBCE0504B1800FFF75BFB0300DE
:10225C003B613B681B684D4A934222D13A6980230B
:10226C001B0413401DD13B69802212041343464AC0
:10227C0019001000FFF732FB454B1B68454918004D
:10228C00FDF716FF03005A1C13005B009B189B0004
:10229C00FB6002E0FB68013BFB60FB68002BF9D1A3
:1022AC008EE03B681B683C4A93420ED13A6980230E
:1022BC005B04134009D13B69802252041343324A18
:1022CC0019001000FFF70AFB7AE03B681B68334AE1
:1022DC00934200D074E03A698023DB03134000D0B2
:1022EC006EE03B698022D2031343274A1900100089
:1022FC00FFF7F4FA64E07B681A6980231B069A42A4
:10230C0004D07B681B691F4A934207D17B681A680B
:10231C003B681B6819001000FFF777FB3B681B68D4
:10232C00002B4DDA184B1800FFF7ECFA03003B6159
:10233C003B681B68154A934208D13B69184A134005
:10234C00114A19001000FFF7C9FA39E03B681B6805
:10235C00114A934208D13B69124A13400A4A1900A8
:10236C001000FFF7BBFA2BE03B681B680B4A93424B
:10237C0026D13B690C4A1340034A19001000FFF7A1
:10238C00ADFA1DE00400008008270140001000B0E9
:10239C0000000020400D0300004000B8002000B4F5
:1023AC00FFFF7FFFFFFFFFFEFFFFBFFF7B689B6D03
:1023BC0020221A437B689A651723FB1801221A7096
:1023CC007B685422002199541723FB181B781800A2
:1023DC00BD4606B080BDC04680B584B000AF786005
:1023EC000023BB607B681B681800FFF789FB031E8A
:1023FC0000D069E07B681B689B68364A13400DD09F
:10240C007B689B6D10221A437B689A657B68DB6D39
:10241C0001221A437B68DA65012356E07B681B684E
:10242C001800FFF749FB2C4B1800FFF76BFA020062
:10243C0080231B0413400FD0284B1B68284918001D
:10244C00FDF736FE03000133BB6002E0BB68013BC5
:10245C00BB60BB68002BF9D17B685B7E012B33D052
:10246C0001F00AFE0300FB6027E07B681B68180084
:10247C00FFF746FB031E04D17B681B681800FFF7AF
:10248C001BFB01F0F9FD0200FB68D31A022B14D9D7
:10249C007B681B681B6801221340012B0DD07B68E5
:1024AC009B6D10221A437B689A657B68DB6D012259
:1024BC001A437B68DA65012307E07B681B681B689D
:1024CC0001221340012BD0D100231800BD4604B0CB
:1024DC0080BDC04617000080082701400000002086
:1024EC00400D030080B584B000AF78607B681B683A
:1024FC001800FFF716FB0300FB607B681B681800D5
:10250C00FFF7FEFA031E46D0FB68002B43D17B6815
:10251C001B689B6805221340012B0DD17B681B683F
:10252C001800FFF7DBFA7B681B6803221A6001F0C6
:10253C00A3FD0300BB6028E07B689B6D10221A434F
:10254C007B689A657B68DB6D01221A437B68DA65D0
:10255C00012321E001F090FD0200BB68D31A022B8D
:10256C0013D97B681B689B68012213400DD07B68D4
:10257C009B6D10221A437B689A657B68DB6D012288
:10258C001A437B68DA65012306E07B681B689B684D
:10259C0001221340DED100231800BD4604B080BDDB
:1025AC0080B584B000AF78607B689B6AFB60FB6889
:1025BC009B6D5022134041D1FB689B6D8022920091
:1025CC001A43FB689A65FB681B681800FFF7DBF978
:1025DC00031E2ED0FB689B7E002B2AD1FB681B6848
:1025EC001B6808221340082B23D1FB681B681800BA
:1025FC00FFF7BAFA031E10D1FB681B685A68FB6818
:10260C001B680C218A435A60FB689B6D154A13406A
:10261C0001221A43FB689A650BE0FB689B6D202234
:10262C001A43FB689A65FB68DB6D01221A43FB6851
:10263C00DA65FB681800FFF7DFFC0FE0FB689B6DA9
:10264C001022134004D0FB681800FFF7E5FC05E0EE
:10265C00FB681B6D5B6B7A6810009847C046BD46E3
:10266C0004B080BDFEFEFFFF80B584B000AF786083
:10267C007B689B6AFB60FB681800FFF7C5FCC046D3
:10268C00BD4604B080BD80B584B000AF78607B6877
:10269C009B6AFB60FB689B6D40221A43FB689A6542
:1026AC00FB68DB6D04221A43FB68DA65FB681800D3
:1026BC00FFF7B2FCC046BD4604B080BD80B582B009
:1026CC0000AF78607B681A68F0239B0313401800F6
:1026DC00BD4602B080BD80B582B000AF78607B682B
:1026EC001B699B0F9B071800BD4602B080BD80B5CF
:1026FC0082B000AF786039607B68B4229B587F222F
:10270C0093431A003B681A437B68B4215A50C04665
:10271C00BD4602B080BD80B582B000AF78607B68EA
:10272C00B4229B587F2213401800BD4602B080BDD6
:10273C0080B582B000AF78607B689B68044A134018
:10274C0001221A437B689A60C046BD4602B080BD28
:10275C00E8FFFF7F80B582B000AF78607B689B6834
:10276C00044A134002221A437B689A60C046BD4655
:10277C0002B080BDE8FFFF7F80B582B000AF78600B
:10278C007B689B6801221340012B01D1012300E0DF
:10279C0000231800BD4602B080BD000080B582B099
:1027AC0000AF78607B689B68054A13408022120654
:1027BC001A437B689A60C046BD4602B080BDC046D5
:1027CC00E8FFFF7F80B582B000AF78607B689B68C4
:1027DC00DB0FDA0780231B069A4201D1012300E0AC
:1027EC0000231800BD4602B080BD000090B58BB030
:1027FC0000AF78600023FB6000233B627B685422AF
:10280C009B5C012B01D10223DDE07B68542201216A
:10281C0099541F23FC187B681800FFF763FE030014
:10282C0023707B681B681800FFF7A6FF031E00D0FF
:10283C00BCE07B689B6D664A134002221A437B689E
:10284C009A657B681B68DB68624A1340BB617B68D6
:10285C001B68DA687B681B685F490A40DA600023F2
:10286C007B622DE07B681B681800FFF797FF14E074
:10287C00FB680133FB60FB68584A93420DD97B68B7
:10288C009B6D1222934310221A437B689A657B68D6
:10289C00542200219954012395E07B681B68180091
:1028AC00FFF790FF031EE3D17B681B681800FFF74E
:1028BC0032FF02003B6A9B183B627B6A01337B62EE
:1028CC007B6A072BCED9796A386AFDF7F1FB0300D6
:1028DC003B627B681B681800FFF72AFF7B681B684C
:1028EC001800FFF7F8FE031E1BD13D4B1800FFF735
:1028FC00E5FE03007B617A69E0235B039A4210D307
:10290C007B699B0C033B01229A401300BB60BB68A4
:10291C005B08BB6002E0BB68013BBB60BB68002B83
:10292C00F9D17B681B683A6A11001800FFF7DFFECB
:10293C007B681B681800FFF70DFF01F09DFB03007F
:10294C003B611BE001F098FB02003B69D31A022BA0
:10295C0014D97B681B681800FFF70EFF031E0DD0FF
:10296C007B689B6D10221A437B689A657B68DB6DD4
:10297C0001221A437B68DA65012324E07B681B681B
:10298C001800FFF7F9FE031EDCD17B681B68D968C1
:10299C007B681B68BA690A43DA607B689B6D03220B
:1029AC00934301221A437B689A6505E07B689B6D13
:1029BC0010221A437B689A657B6854220021995433
:1029CC001F23FB181B781800BD460BB090BDC046EA
:1029DC00FDFEFFFF03800000FC7FFFFFFFF1020004
:1029EC000827014080B500AF034B9A68E023DB0158
:1029FC0013401800BD4680BD0010024080B588B061
:102A0C0000AF78607B68002B01D10123FEE27B686C
:102A1C001B680122134000D17CE0C34B9B68382219
:102A2C001340BB61C04BDB68032213407B61BB6965
:102A3C00102B02D17B69032B02D0BB69082B0BD165
:102A4C00B94B1A6880239B02134062D07B685B6889
:102A5C00002B5ED10123D9E27B685A6880235B028C
:102A6C009A4207D1B04B1A68AF4B802149020A43F6
:102A7C001A6020E07B685A68A023DB029A420ED1D0
:102A8C00A94B1A68A84B8021C9020A431A60A64BAD
:102A9C001A68A54B802149020A431A600BE0A24B2D
:102AAC001A68A14BA1490A401A609F4B1A689E4BA9
:102ABC009F490A401A607B685B68002B14D001F0B8
:102ACC00DBFA03003B6108E001F0D6FA02003B6937
:102ADC00D31A642B01D9032398E2934B1A688023F1
:102AEC009B021340F0D015E001F0C6FA03003B61E5
:102AFC0008E001F0C1FA02003B69D31A642B01D93A
:102B0C00032383E2884B1A6880239B021340F0D185
:102B1C0000E0C0467B681B680222134000D199E09C
:102B2C00814B9B6838221340BB617F4BDB680322CF
:102B3C0013407B61BB69102B02D17B69022B02D045
:102B4C00BB69002B35D1784B1A688023DB0013400E
:102B5C0005D07B68DB68002B01D1012356E2724B58
:102B6C005B68744A134019007B685B691A026E4BF0
:102B7C000A435A60BB69002B12D16B4B1B686E4A1F
:102B8C00134019007B681A69674B0A431A60664B3D
:102B9C001B68DB0A07221340684ADA40684B1A604C
:102BAC00684B1B68180002F0A9FF031E51D00123CB
:102BBC002CE27B68DB68002B30D05B4B1B685E4AD9
:102BCC00134019007B681A69574B0A431A60564B1D
:102BDC001A68554B802149000A431A6001F04CFADF
:102BEC0003003B6108E001F047FA02003B69D31A8D
:102BFC00022B01D9032309E24B4B1A688023DB001B
:102C0C001340F0D0484B5B684A4A134019007B686C
:102C1C005B691A02444B0A435A601BE0424B1A6828
:102C2C00414B49490A401A6001F026FA03003B6106
:102C3C0008E001F021FA02003B69D31A022B01D9FA
:102C4C000323E3E1384B1A688023DB001340F0D1F7
:102C5C0000E0C0467B681B680822134047D0324B0B
:102C6C009B6838221340182B0AD12F4B1B6E022263
:102C7C0013403CD07B689B69002B38D10123C5E104
:102C8C007B689B69002B19D0274B1A6E264B0121B0
:102C9C000A431A6601F0F0F903003B6108E001F009
:102CAC00EBF902003B69D31A022B01D90323ADE1E6
:102CBC001D4B1B6E02221340F1D018E01A4B1A6EFA
:102CCC00194B01218A431A6601F0D6F903003B61C6
:102CDC0008E001F0D1F902003B69D31A022B01D9AB
:102CEC00032393E1104B1B6E02221340F1D17B683E
:102CFC001B680422134000D1C6E01F23FB180022DE
:102D0C001A70094B9B6838221340202B1ED1064B9E
:102D1C00DB6D0222134000D1B6E07B689B68002B70
:102D2C0000D0B1E0012371E100100240FFFFFEFF73
:102D3C00FFFFFBFFFF80FFFFFFC7FFFF0024F40036
:102D4C000000002004000020FFFEFFFFB14BDA6BF7
:102D5C0080235B05134001D1012300E00023002BED
:102D6C0011D0AC4BDA6BAB4B802149050A43DA63CB
:102D7C00A84BDA6B80235B051340FB60FB681F23B9
:102D8C00FB1801221A70A44B1A6880235B001340B5
:102D9C001AD1A14B1A68A04B802149000A431A6032
:102DAC0001F06AF903003B6108E001F065F90200EB
:102DBC003B69D31A022B01D9032327E1964B1A68DE
:102DCC0080235B001340F0D07B689B68012B06D1FD
:102DDC00904BDA6D8F4B01210A43DA651CE07B685E
:102DEC009B68052B0CD18B4BDA6D8A4B04210A4363
:102DFC00DA65884BDA6D874B01210A43DA650BE003
:102E0C00844BDA6D834B01218A43DA65814BDA6D91
:102E1C00804B04218A43DA657B689B68002B14D0B5
:102E2C0001F02AF903003B6109E001F025F90200E9
:102E3C003B69D31A794A934201D90323E6E0754BD7
:102E4C00DB6D02221340F0D013E001F015F9030002
:102E5C003B6109E001F010F902003B69D31A6F4A9B
:102E6C00934201D90323D1E06A4BDB6D022213405C
:102E7C00F0D11F23FB181B78012B05D1654BDA6BA6
:102E8C00644B67490A40DA637B68DB69002B00D12D
:102E9C00BBE0604B9B6838221340102B00D17BE0C9
:102EAC007B68DB69022B56D15A4B1A68594B5D492A
:102EBC000A401A6001F0E0F803003B6108E001F001
:102ECC00DBF802003B69D31A022B01D903239DE0E6
:102EDC00504B1A6880239B041340F0D14D4BDB6898
:102EEC00514A134019007B681A6A7B685B6A1A4363
:102EFC007B689B6A1B021A437B68DB6A1A437B68FC
:102F0C001B6B1A437B685B6B1A43424B0A43DA60B8
:102F1C00404B1A683F4B802149040A431A603D4BD1
:102F2C00DA683C4B802149050A43DA6001F0A4F8C9
:102F3C0003003B6108E001F09FF802003B69D31AE3
:102F4C00022B01D9032361E0324B1A6880239B04C6
:102F5C001340F0D059E02F4B1A682E4B31490A40E0
:102F6C001A6001F089F803003B6108E001F084F875
:102F7C0002003B69D31A022B01D9032346E0254BEF
:102F8C001A6880239B041340F0D1224BDA68214B42
:102F9C0026490A40DA6038E07B68DB69012B01D1F5
:102FAC00012333E01B4BDB687B617B6903221A40F6
:102FBC007B681B6A9A4226D17B6970221A407B6817
:102FCC005B6A9A421FD17A69FE23DB011A407B6847
:102FDC009B6A1B029A4216D17A69F8239B031A400A
:102FEC007B68DB6A9A420ED17A69E0231B051A4092
:102FFC007B681B6B9A4206D17B695B0F5A077B6817
:10300C005B6B9A4201D0012300E000231800BD46FF
:10301C0008B080BD00100240007000408813000012
:10302C00FFFFFFEFFFFFFFFE8C80C111FCFFFEEEE8
:10303C0080B584B000AF786039607B68002B01D11B
:10304C000123E9E0764B1B68072213403A689A4249
:10305C001ED9734B1B68072293431900704B3A68B7
:10306C000A431A6001F008F80300FB6009E001F064
:10307C0003F80200FB68D31A6A4A934201D903236E
:10308C00CAE0674B1B68072213403A689A42EED19C
:10309C007B681B680222134015D07B681B680422D6
:1030AC00134006D0604B9A685F4BE021C9010A437C
:1030BC009A605D4B9B685D4A134019007B689A6867
:1030CC00594B0A439A607B681B680122134057D006
:1030DC007B685B68012B07D1534B1A6880239B02DA
:1030EC0013402BD1012397E07B685B68022B07D13F
:1030FC004D4B1A6880239B0413401FD101238BE096
:10310C007B685B68002B07D1474B1A688023DB0078
:10311C00134013D101237FE07B685B68032B06D13E
:10312C00414B1B6E0222134008D1012374E03E4B2D
:10313C00DB6D0222134001D101236DE03A4B9B68F9
:10314C000722934319007B685A68374B0A439A60ED
:10315C0000F092FF0300FB6009E000F08DFF02001D
:10316C00FB68D31A2F4A934201D9032354E02E4B08
:10317C009B6838221A407B685B68DB009A42ECD172
:10318C00274B1B68072213403A689A421ED2244BE5
:10319C001B68072293431900214B3A680A431A60B3
:1031AC0000F06AFF0300FB6009E000F065FF02001D
:1031BC00FB68D31A1B4A934201D903232CE0184B0A
:1031CC001B68072213403A689A42EED17B681B6851
:1031DC000422134009D0144B9B68154A1340190064
:1031EC007B68DA68104B0A439A6000F029F80100FA
:1031FC000D4B9B681B0A0F221A400E4B9200D358A2
:10320C001F2213400A00DA400B4B1A600B4B1B6851
:10321C00180002F073FC03001800BD4604B080BD1A
:10322C00002002408813000000100240FFF0FFFF56
:10323C00FF8FFFFF5CB80008000000200400002096
:10324C0080B586B000AF3C4B9B68382213400FD141
:10325C00394B1B68DB0A0722134001229A401300EA
:10326C003B6039683548FCF723FF03003B615DE0A8
:10327C00314B9B6838221340082B02D1304B3B61F9
:10328C0054E02D4B9B6838221340102B38D12A4B1D
:10329C00DB6803221340FB60274BDB681B0907220A
:1032AC0013400133BB60FB68032B0DD1B968244874
:1032BC00FCF7FEFE030019001F4BDB681B0A7F2284
:1032CC0013404B437B610DE0B9681C48FCF7F0FEE2
:1032DC0003001900184BDB681B0A7F2213404B4379
:1032EC007B61C046144BDB685B0F07221340013334
:1032FC007B6079687869FCF7DBFE03003B6115E0C5
:10330C000D4B9B6838221340202B03D180231B02CA
:10331C003B610BE0084B9B6838221340182B03D100
:10332C00FA23DB013B6101E000233B613B691800A0
:10333C00BD4606B080BDC046001002400024F4001B
:10334C0000127A0080B500AF024B1B681800BD4616
:10335C0080BDC04600000020B0B500AFFFF7F2FF03
:10336C000400FFF73FFB03001A0B054B9200D358E8
:10337C001F221340DC4023001800BD46B0BDC046E0
:10338C009CB8000880B582B000AF786039607B686B
:10339C0007221A600E4B9B6807221A407B685A6002
:1033AC000B4B9A68F0231B011A407B689A60084B00
:1033BC009A68E023DB011A407B68DA60054B1B68D6
:1033CC0007221A403B681A60C046BD4602B080BD59
:1033DC00001002400020024080B586B000AF78603B
:1033EC001323FB1800221A701223FB1800221A70E8
:1033FC007B681A6880239B02134000D1A3E0112044
:10340C003B1800221A70A54BDA6B80235B05134026
:10341C0010D1A24BDA6BA14B802149050A43DA6328
:10342C009E4BDA6B80235B051340BB60BB683B187B
:10343C0001221A709A4B1A68994B802149000A4351
:10344C001A6000F019FE0300FB600BE000F014FEA4
:10345C000200FB68D31A022B04D91323FB18032296
:10346C001A7005E08E4B1A6880235B001340EDD078
:10347C001323FB181B78002B54D1884BDA6DC02317
:10348C009B0013407B617B69002B19D07B685B6AC6
:10349C007A699A4214D0814BDB6D824A13407B616E
:1034AC007E4BDA6D7D4B802149020A43DA657B4BFA
:1034BC00DA6D7A4B7C490A40DA65784B7A69DA65C1
:1034CC007B690122134016D000F0D6FD0300FB608F
:1034DC000CE000F0D1FD0200FB68D31A734A934252
:1034EC0004D91323FB1803221A7004E06B4BDB6D19
:1034FC0002221340EDD01323FB181B78002B0AD1AA
:10350C00664BDB6D674A134019007B685A6A634B44
:10351C000A43DA650CE01223FB181322BA1812784E
:10352C001A7005E01223FB181322BA1812781A70BD
:10353C001123FB181B78012B05D1584BDA6B574B19
:10354C005B490A40DA637B681B680122134009D08F
:10355C00524B5B6D0322934319007B685A684F4BA7
:10356C000A435A657B681B681022134009D04B4BE9
:10357C005B6D504A134019007B689A68474B0A43AD
:10358C005A657B681A6880239B00134009D0434B13
:10359C005B6D494A134019007B685A693F4B0A43DB
:1035AC005A657B681A688023DB00134009D03B4BBB
:1035BC005B6D424A134019007B689A69374B0A438A
:1035CC005A657B681B682022134009D0334B5B6D16
:1035DC003B4A134019007B68DA68304B0A435A6542
:1035EC007B681A688023DB01134015D02B4B5B6D75
:1035FC009B0099087B68DA69284B0A435A657B68FB
:10360C00DA698023DB059A4206D1244BDA68234B16
:10361C00802149020A43DA607B681A6880239B0385
:10362C00134016D01D4B5B6D264A134019007B6866
:10363C001A6A1A4B0A435A657B681A6A8023DB03A1
:10364C009A4206D1154BDA68144B802149040A437F
:10365C00DA607B681A6880231B01134016D00F4B6D
:10366C005B6D194A134019007B681A690B4B0A43AE
:10367C005A657B681A698023DB019A4206D1074B95
:10368C00DA68064B802149020A43DA601223FB18E0
:10369C001B781800BD4606B080BDC0460010024025
:1036AC0000700040FFFCFFFFFFFFFEFF88130000CF
:1036BC00FFFFFFEFFFF3FFFFFFFFF3FFFFFFCFFF66
:1036CC00FFCFFFFFFFFFBFFFFF3FFFFF80B586B0BF
:1036DC0000AF7860396000237B6147E13B681B6871
:1036EC0001217A6991400A001340FB60FB68002BB2
:1036FC0000D138E13B685B6803221340012B05D0F5
:10370C003B685B6803221340022B30D17B689B68BB
:10371C003B617B695B0003229A401300DA433B69EF
:10372C0013403B613B68DA687B695B009A4013008D
:10373C003A6913433B617B683A699A607B685B68C2
:10374C003B6101227B699A401300DA433B691340C9
:10375C003B613B685B681B0901221A407B699A40FC
:10376C0013003A6913433B617B683A695A603B68C2
:10377C005B6803221340032B17D07B68DB683B612B
:10378C007B695B0003229A401300DA433B691340C8
:10379C003B613B689A687B695B009A4013003A690D
:1037AC0013433B617B683A69DA603B685B680322D0
:1037BC001340022B23D17B69DA087B680832920014
:1037CC00D3583B617B69072213409B000F229A4020
:1037DC001300DA433B6913403B613B681A697B6910
:1037EC0007210B409B009A4013003A6913433B613D
:1037FC007B69DA087B68083292003969D1507B68A2
:10380C001B683B617B695B0003229A401300DA431F
:10381C003B6913403B613B685B6803221A407B6940
:10382C005B009A4013003A6913433B617B683A6929
:10383C001A603B685A68C0239B02134000D192E087
:10384C00504A7B699B0818339B009B583B617B69F2
:10385C0003221340DB000F229A401300DA433B692A
:10386C0013403B617A68A023DB059A4213D07B6836
:10387C00454A93420DD07B68444A934207D07B68FB
:10388C00434A934201D1032306E0052304E00223BB
:10389C0002E0012300E000237A6903210A40D200F0
:1038AC0093403A6913433B6136497B699B08183353
:1038BC009B003A695A50334B1B683B61FB68DA43F7
:1038CC003B6913403B613B685A6880235B031340A0
:1038DC0003D03A69FB6813433B612A4B3A691A607F
:1038EC00284B5B683B61FB68DA433B6913403B61E7
:1038FC003B685A6880239B03134003D03A69FB68EA
:10390C0013433B611F4B3A695A601E4A8423D358B8
:10391C003B61FB68DA433B6913403B613B685A6887
:10392C0080239B02134003D03A69FB6813433B612D
:10393C00144984223B698B50124A8023D3583B6133
:10394C00FB68DA433B6913403B613B685A68802350
:10395C005B02134003D03A69FB6813433B6109498E
:10396C0080223B698B507B6901337B613B681A6811
:10397C007B69DA40131E00D0B0E6C046C046BD4697
:10398C0006B080BD00180240000400500008005032
:10399C00000C005080B582B000AF78607B68002BC3
:1039AC0001D1012377E07B681B683D4A9446634450
:1039BC0014211800FCF77CFB03009A007B681A6446
:1039CC007B682522022199547B681B681A687B68E6
:1039DC001B6834490A401A607B681B6819687B684D
:1039EC009A687B68DB681A437B681B691A437B689F
:1039FC005B691A437B689B691A437B68DB691A43D2
:103A0C007B681B6A1A437B681B680A431A607B68D5
:103A1C00180000F0C1F97B689A688023DB019A4298
:103A2C0002D17B6800225A607B685A687B685B6CA9
:103A3C003F210A401A607B689B6C7A68D26C5A6092
:103A4C007B685B68002B11D07B685B68042B0DD8FE
:103A5C007B68180000F0CCF97B681B6D00221A60A3
:103A6C007B685B6D7A68926D5A6008E07B68002217
:103A7C001A657B6800225A657B6800229A657B6810
:103A8C000022DA637B682522012199547B68242269
:103A9C000021995400231800BD4602B080BDC046D9
:103AAC00F8FFFDBF0F80FFFF80B586B000AFF86058
:103ABC00B9607A603B601723FB1800221A70FB6810
:103ACC0024229B5C012B01D102236FE0FB68242292
:103ADC0001219954FB6825229B5CDBB2012B57D149
:103AEC00FB68252202219954FB680022DA63FB68EB
:103AFC001B681A68FB681B6801218A431A603B68C3
:103B0C007A68B968F86800F007F9FB681B6B002B42
:103B1C0008D0FB681B681A68FB681B680E210A43F7
:103B2C001A600FE0FB681B681A68FB681B680421AD
:103B3C008A431A60FB681B681A68FB681B680A21B9
:103B4C000A431A60FB685B6C1A6880235B021340A3
:103B5C0008D0FB685B6C1A68FB685B6C80214900C1
:103B6C000A431A60FB681B6D002B08D0FB681B6DA9
:103B7C001A68FB681B6D802149000A431A60FB68B8
:103B8C001B681A68FB681B6801210A431A600AE06B
:103B9C00FB688022DA63FB682422002199541723E6
:103BAC00FB1801221A701723FB181B781800BD464E
:103BBC0006B080BD80B584B000AF7860554B1B68F3
:103BCC00FB607B681B681B68BB607B681B6C1C22E2
:103BDC00134004229A401300FA68134027D0BB68A4
:103BEC000422134023D07B681B681B6820221340DF
:103BFC0007D17B681B681A687B681B6804218A43A1
:103C0C001A60444B59687B681B6C1C2213400422BD
:103C1C009A40404B0A435A607B681B6B002B00D1C7
:103C2C0073E07B681B6B7A68100098476DE07B68CB
:103C3C001B6C1C22134002229A401300FA6813409A
:103C4C002ED0BB68022213402AD07B681B681B68ED
:103C5C00202213400BD17B681B681A687B681B6899
:103C6C000A218A431A607B68252201219954294B29
:103C7C0059687B681B6C1C22134002229A40254B0E
:103C8C000A435A607B682422002199547B68DB6AC2
:103C9C00002B3AD07B68DB6A7A681000984734E0D6
:103CAC007B681B6C1C22134008229A401300FA6894
:103CBC0013402BD0BB680822134027D07B681B68AD
:103CCC001A687B681B680E218A431A60114B59686D
:103CDC007B681B6C1C22134001229A400D4B0A433B
:103CEC005A607B680122DA637B6825220121995492
:103CFC007B682422002199547B685B6B002B05D0D8
:103D0C007B685B6B7A6810009847C046C046BD461E
:103D1C0004B080BD0000024080B584B000AFF860F4
:103D2C00B9607A603B60FB689B6CFA68D26C5A6035
:103D3C00FB681B6D002B04D0FB685B6DFA68926D01
:103D4C005A60144B5968FB681B6C1C2213400122EF
:103D5C009A40104B0A435A60FB681B683A685A60D9
:103D6C00FB689B68102B08D1FB681B687A689A600B
:103D7C00FB681B68BA68DA6007E0FB681B68BA6806
:103D8C009A60FB681B687A68DA60C046BD4604B06E
:103D9C0080BDC0460000024080B584B000AF7860A2
:103DAC007B681B6C9B08104A944663449B001A006A
:103DBC007B685A647B681B681A00FF231340083B1E
:103DCC0014211800FCF774F90300FB607B68074AA8
:103DDC009A64FB681F22134001229A407B68DA64C4
:103DEC00C046BD4604B080BD008200108008024071
:103DFC0080B584B000AF78607B685B683F2213406D
:103E0C00FB60FB680A4A944663449B001A007B687B
:103E1C001A657B68074A5A65FB68013B032213400D
:103E2C0001229A407B689A65C046BD4604B080BDAD
:103E3C003F8200104009024080B584B000AF78602A
:103E4C00194B1B68194A13401900174B7A680A431F
:103E5C001A607A6880239B009A421FD1144B1A680F
:103E6C0013005B009B185B0012491800FCF720F94B
:103E7C0003000133FB6008E0FB68002B03D0FB68F8
:103E8C00013BFB6001E0032309E0074B5A698023E7
:103E9C00DB001A408023DB009A42EDD0002318008F
:103EAC00BD4604B080BDC04600700040FFF9FFFF66
:103EBC000000002040420F0080B582B000AF02002D
:103ECC00FB1D1A70FB1D1B787F2B09D8FB1D1B7863
:103EDC001A001F231A40044B012191400A001A605A
:103EEC00C046BD4602B080BD00E100E090B583B095
:103EFC0000AF02003960FB1D1A70FB1D1B787F2B75
:103F0C0028D82F4AFB1D1B785BB29B08C0339B0043
:103F1C009B58FA1D1278110003220A40D200FF218F
:103F2C0091400A00D2431A4011003B689B01FF22CA
:103F3C001A40FB1D1B78180003230340DB009A403A
:103F4C001F48FB1D1B785BB29B080A43C0339B00C8
:103F5C001A5031E01B4AFB1D1B7819000F230B4034
:103F6C00083B9B0806339B00D31804331B68FA1DCF
:103F7C001278110003220A40D200FF2191400A005E
:103F8C00D2431A4011003B689B01FF221A40FB1DD3
:103F9C001B78180003230340DB009A400948FB1DE3
:103FAC001B781C000F232340083B9B080A43063355
:103FBC009B00C31804331A60C046BD4603B090BDC5
:103FCC0000E100E000ED00E080B584B000AFB96026
:103FDC007A600F217B18021C1A70BA687B181B7848
:103FEC005BB211001800FFF781FFC046BD4604B05C
:103FFC0080BD80B582B000AF0200FB1D1A70FB1DA6
:10400C001B785BB21800FFF757FFC046BD4602B0E5
:10401C0080BD000080B582B000AFFB1D00221A707D
:10402C000B4B1A680A4B802149000A431A60032083
:10403C0001F064FD031E03D0FB1D01221A7001E088
:10404C0001F038FDFB1D1B781800BD4602B080BD89
:10405C000020024080B500AF054B1B781A00054BC1
:10406C001B68D218034B1A60C046BD4680BDC046C3
:10407C00080000208C00002080B500AF024B1B68AC
:10408C001800BD4680BDC0468C00002080B584B0B1
:10409C0000AF7860FFF7F0FF0300BB607B68FB604C
:1040AC00FB68013305D00A4B1B781A00FB689B1880
:1040BC00FB60C046FFF7E0FF0200BB68D31AFA684A
:1040CC009A42F7D8C046C046BD4604B080BDC04633
:1040DC000800002080B582B000AF78607B68002BB0
:1040EC0001D1012346E07B6888229B58002B07D125
:1040FC007B688422002199547B68180001F00EFC27
:10410C007B688822242199507B681B681A687B681D
:10411C001B6801218A431A607B689B6A002B03D0C1
:10412C007B68180000F0BCFA7B68180000F040F8BF
:10413C000300012B01D101231CE07B681B685A682A
:10414C007B681B680D490A405A607B681B689A683B
:10415C007B681B682A218A439A607B681B681A68F3
:10416C007B681B6801210A431A607B68180000F009
:10417C004BFB03001800BD4602B080BDFFB7FFFF2C
:10418C0080B582B000AF7860C046BD4602B080BD3D
:10419C0080B582B000AF7860C046BD4602B080BD2D
:1041AC0080B582B000AF7860C046BD4602B080BD1D
:1041BC00B0B590B000AF78621A2320229B18DB199F
:1041CC0000221A707B6A9A687B6A1B691A437B6AA5
:1041DC005B691A437B6ADB691343FB637B6A1B686D
:1041EC001B68C44A134019007B6A1A68FB6B0B43AB
:1041FC0013607B6A1B685B68BF4A134018007B6ABC
:10420C00D9687B6A1A6803000B4353607B6A9B690D
:10421C00FB637B6A1B68B94A934204D07B6A1B6AB6
:10422C00FA6B1343FB637B6A1B689B68B44A1340AD
:10423C0019007B6A1A68FB6B0B4393607B6A1B68E3
:10424C00DB6A0F22934318007B6A596A7B6A1A68EF
:10425C0003000B43D3627B6A1B68AA4A934231D199
:10426C00A94B5B6D03221340032B1DD023D8022BCB
:10427C000CD020D8002B02D0012B0ED01BE01B231E
:10428C0020229B18DB1900221A7071E01B232022BC
:10429C009B18DB1902221A706AE01B2320229B1840
:1042AC00DB1904221A7063E01B2320229B18DB19F4
:1042BC0008221A705CE01B2320229B18DB191022A9
:1042CC001A7055E07B6A1B68904A934206D11B23F7
:1042DC0020229B18DB1900221A7049E07B6A1B68AC
:1042EC00864A93423ED1884B5A6DC0231B01134022
:1042FC00C0221201934227D0C022120193422AD825
:10430C0080221201934211D080221201934222D8B2
:10431C00002B04D08022D20093420ED01BE01B2332
:10432C0020229B18DB1900221A7021E01B2320226B
:10433C009B18DB1902221A701AE01B2320229B18EF
:10434C00DB1904221A7013E01B2320229B18DB19A3
:10435C0008221A700CE01B2320229B18DB19102258
:10436C001A7005E01B2320229B18DB1910221A70EF
:10437C007B6A1B68614A934200D092E01B23202287
:10438C009B18DB191B78082B15D018DC042B0DD0CF
:10439C0015DC002B02D0022B05D010E0FEF7DCFF61
:1043AC0003007B6314E05A4B7B6311E0FEF748FF7C
:1043BC0003007B630CE080231B027B6308E000237B
:1043CC007B631A2320229B18DB1901221A70C0462A
:1043DC007B6B002B00D147E17B6A5A6A4D4B520034
:1043EC00D35A1900786BFBF763FE0300BB627B6A40
:1043FC005A6813005B009B18BA6A9A4205D37B6A11
:10440C005B681B03BA6A9A4206D91A2320229B18AE
:10441C00DB1901221A7027E17B6BBB610023FB6166
:10442C007B6A5A6A3B4B5200D35A3B6100237B6137
:10443C003A697B69B869F969FCF728F802000B0046
:10444C00110E1D020D4314027B6A5B685B08BB6096
:10445C000023FB60B868F968001969417B6A5B68E6
:10446C003B6000237B603A687B68FCF70FF8020026
:10447C000B0013003B633A6BC0239B009A4209D399
:10448C003A6B80235B039A4204D27B6A1B683A6BBB
:10449C00DA60E9E01A2320229B18DB1901221A703A
:1044AC00E2E07B6ADA6980231B029A4200D083E047
:1044BC001B2320229B18DB191B78082B15D02BDC17
:1044CC00042B0DD028DC002B02D0022B05D023E0CE
:1044DC00FEF742FF03007B6327E00D4B7B6324E078
:1044EC00FEF7AEFE03007B631FE080231B027B63A1
:1044FC001BE0C046F369FFCFFFCFFFFF00800040F9
:10450C00FFF4FF110038014000100240004400404D
:10451C000024F40010B9000800237B631A23202226
:10452C009B18DB1901221A70C0467B6B002B00D143
:10453C009AE07B6A5A6A584B5200D35A1900786B2E
:10454C00FBF7B6FD03005A007B6A5B685B08D21868
:10455C007B6A5B6819001000FBF7AAFD03003B6344
:10456C003B6B0F2B21D93A6B80235B029A421CD2F6
:10457C003B6B9AB20E2020240319DB190F218A43BE
:10458C001A803B6B5B089BB20722134099B203194C
:10459C00DB190219D21912880A431A807B6A1B682C
:1045AC000219D2191288DA605EE01A2320229B18B5
:1045BC00DB1901221A7057E01B2320229B18DB19F0
:1045CC001B78082B15D018DC042B0DD015DC002B18
:1045DC0002D0022B05D010E0FEF7BEFE03007B6379
:1045EC0014E02E4B7B6311E0FEF72AFE03007B6385
:1045FC000CE080231B027B6308E000237B631A23FF
:10460C0020229B18DB1901221A70C0467B6B002BF1
:10461C002AD07B6A5A6A204B5200D35A1900786B05
:10462C00FBF746FD03001A007B6A5B685B08D21837
:10463C007B6A5B6819001000FBF73AFD03003B63D3
:10464C003B6B0F2B0AD93A6B80235B029A4205D243
:10465C003B6B9AB27B6A1B68DA6005E01A23202256
:10466C009B18DB1901221A707B6A6A22012199526C
:10467C007B6A6822012199527B6A00225A677B6A05
:10468C0000229A671A2320229B18DB191B7818002A
:10469C00BD4610B0B0BDC04610B900080024F400EF
:1046AC0080B582B000AF78607B689B6A08221340AB
:1046BC000BD07B681B685B684A4A134019007B6807
:1046CC009A6B7B681B680A435A607B689B6A012261
:1046DC0013400BD07B681B685B68434A134019007E
:1046EC007B68DA6A7B681B680A435A607B689B6A42
:1046FC00022213400BD07B681B685B683B4A13405B
:10470C0019007B681A6B7B681B680A435A607B68CC
:10471C009B6A042213400BD07B681B685B68344A8D
:10472C00134019007B685A6B7B681B680A435A60FC
:10473C007B689B6A102213400BD07B681B689B68BC
:10474C002C4A134019007B68DA6B7B681B680A43A0
:10475C009A607B689B6A202213400BD07B681B6895
:10476C009B68254A134019007B681A6C7B681B6890
:10477C000A439A607B689B6A402213401DD07B6879
:10478C001B685B681D4A134019007B685A6C7B6878
:10479C001B680A435A607B685A6C80235B039A42FD
:1047AC000BD17B681B685B68154A134019007B684A
:1047BC009A6C7B681B680A435A607B689B6A8022F0
:1047CC0013400BD07B681B685B680E4A13401900C2
:1047DC007B68DA6C7B681B680A435A60C046BD462E
:1047EC0002B080BDFF7FFFFFFFFFFDFFFFFFFEFF5D
:1047FC00FFFFFBFFFFEFFFFFFFDFFFFFFFFFEFFF01
:10480C00FFFF9FFFFFFFF7FF80B592B002AF78600C
:10481C007B68902200219950FFF72EFC0300FB636C
:10482C007B681B681B6808221340082B2DD1FB6B7F
:10483C00802291037868474A0092002200F08EF89B
:10484C00031E22D0EFF310837B627B6ABB630123D0
:10485C00BB62BB6A83F31088C0467B681B681A680E
:10486C007B681B6880218A431A60BB6BFB62FB6A06
:10487C0083F31088C0467B688822202199507B687E
:10488C00842200219954032360E07B681B681B6819
:10489C0004221340042B46D1FB6B8022D103786891
:1048AC002C4A0092002200F059F8031E3BD0EFF383
:1048BC001083FB60FB687B6301233B613B6983F3E3
:1048CC001088C0467B681B681A687B681B68224985
:1048DC000A401A607B6B7B617B6983F31088C0464E
:1048EC00EFF31083BB61BB693B630123FB61FB6985
:1048FC0083F31088C0467B681B689A687B681B68CA
:10490C0001218A439A603B6B3B623B6A83F31088BC
:10491C00C0467B688C22202199507B688422002120
:10492C009954032312E07B688822202199507B68DC
:10493C008C22202199507B680022DA667B68002249
:10494C001A677B6884220021995400231800BD4605
:10495C0010B080BDFFFFFF01DFFEFFFF80B584B00C
:10496C0000AFF860B9603B60FB1D1A7051E0BB6989
:10497C0001334ED0FFF780FB02003B68D31ABA69B3
:10498C009A4202D3BB69002B01D1032351E0FB688F
:10499C001B681B68042213403BD0BB68802B38D0AB
:1049AC00BB68402B35D0FB681B68DB6908221340C1
:1049BC00082B11D1FB681B6808221A62FB681800CF
:1049CC0000F022F9FB68902208219950FB688422A0
:1049DC000021995401232CE0FB681B68DA698023C1
:1049EC001B011A4080231B019A4212D1FB681B68E1
:1049FC00802212011A62FB68180000F005F9FB68AE
:104A0C00902220219950FB68842200219954032381
:104A1C000FE0FB681B68DB69BA681340BA68D31AED
:104A2C005A425341DBB21A00FB1D1B789A429ED0AE
:104A3C0000231800BD4604B080BD000080B590B0C6
:104A4C0000AFF860B960BB1D1A80FB68BA689A6544
:104A5C00FB68BA1D5C2112885A52FB689022002117
:104A6C009950FB688C2222219950FB6880229B581C
:104A7C00002B2DD0FB6880229B58404ADA62FB68E1
:104A8C0080229B583E4A1A63FB6880229B583D4A01
:104A9C005A63FB6880229B5800229A63FB68802231
:104AAC009858FB681B6824331900FB689B6D1A002F
:104ABC00BB1D1B88FEF7F8FF031E09D0FB68902274
:104ACC0010219950FB688C2220219950012350E031
:104ADC00FB681B69002B19D0EFF31083BB62BB6A18
:104AEC00FB630123FB62FB6A83F31088C046FB68FF
:104AFC001B681A68FB681B68802149000A431A600E
:104B0C00FB6B3B633B6B83F31088C046EFF3108366
:104B1C003B613B69BB6301237B617B6983F3108839
:104B2C00C046FB681B689A68FB681B6801210A4336
:104B3C009A60BB6BBB61BB6983F31088C046EFF313
:104B4C001083FB61FB697B6301233B623B6A83F34C
:104B5C001088C046FB681B689A68FB681B6840217C
:104B6C000A439A607B6B7B627B6A83F31088C04636
:104B7C0000231800BD4610B080BDC046E14C0008B3
:104B8C00114E0008534E000880B58AB000AF786013
:104B9C00EFF31083BB60BB687B620123FB60FB6897
:104BAC0083F31088C0467B681B681A687B681B6897
:104BBC00C0218A431A607B6A3B613B6983F310888E
:104BCC00C046EFF310837B617B693B620123BB61C1
:104BDC00BB6983F31088C0467B681B689A687B6846
:104BEC001B6808490A409A603B6AFB61FB6983F3C6
:104BFC001088C0467B68882220219950C046BD464B
:104C0C000AB080BDFFFF7FFF80B58EB000AF78602B
:104C1C00EFF310837B617B697B630123BB61BB6911
:104C2C0083F31088C0467B681B681A687B681B6816
:104C3C0026490A401A607B6BFB61FB6983F3108881
:104C4C00C046EFF310833B623B6A3B6301237B62FC
:104C5C007B6A83F31088C0467B681B689A687B6804
:104C6C001B681B490A409A603B6BBB62BB6A83F3AF
:104C7C001088C0467B68DB6E012B18D1EFF31083D4
:104C8C00BB60BB68FB620123FB60FB6883F310888D
:104C9C00C0467B681B681A687B681B6810218A43B6
:104CAC001A60FB6A3B613B6983F31088C0467B68E2
:104CBC008C22202199507B680022DA667B680022C6
:104CCC005A67C046BD460EB080BDC046DFFEFFFF32
:104CDC00FEFFFFEF80B594B000AF78607B689B6AF5
:104CEC00FB647B681B681B68202213406FD1FB6C34
:104CFC005E2200219952EFF31083BB61BB69BB6448
:104D0C000123FB61FB6983F31088C046FB6C1B68B5
:104D1C001A68FB6C1B683A490A401A60BB6C3B6210
:104D2C003B6A83F31088C046EFF310837B627B6A87
:104D3C007B640123BB62BB6A83F31088C046FB6CA7
:104D4C001B689A68FB6C1B6801218A439A607B6C18
:104D5C00FB62FB6A83F31088C046EFF310833B635E
:104D6C003B6B3B6401237B637B6B83F31088C046F6
:104D7C00FB6C1B689A68FB6C1B6840218A439A6029
:104D8C003B6CBB63BB6B83F31088C046FB6C8C2203
:104D9C0020219950FB6CDB6E012B18D1EFF31083A3
:104DAC00FB60FB68FB6301233B613B6983F3108869
:104DBC00C046FB6C1B681A68FB6C1B6810218A438D
:104DCC001A60FB6B7B617B6983F31088C046FB6CBC
:104DDC0000221A67FB6CDB6E012B08D1FB6C5C228A
:104DEC009A5AFB6C1100180002F03CFB03E0FB6CC0
:104DFC001800FFF7C5F9C046BD4614B080BDC046CB
:104E0C00FFFEFFFF80B584B000AF78607B689B6AC3
:104E1C00FB60FB6801221A67FB68DB6E012B0AD171
:104E2C00FB685C229B5A5B089AB2FB681100180065
:104E3C0002F018FB03E0FB681800FFF7A9F9C04665
:104E4C00BD4604B080BD80B586B000AF78607B688D
:104E5C009B6A7B617B6988229B583B617B698C22B6
:104E6C009B58FB607B691B689B6880221340802BDE
:104E7C000AD13B69212B07D17B695622002199521B
:104E8C007B691800FFF780FE7B691B689B684022DA
:104E9C001340402B0AD1FB68222B07D17B695E2281
:104EAC00002199527B691800FFF7AEFE7B699022B6
:104EBC009B5810221A437B6990215A507B69180029
:104ECC00FFF76EF9C046BD4606B080BD80B584B014
:104EDC0000AF78607B6884229B5C012B01D102239C
:104EEC0027E07B688422012199547B688822242145
:104EFC0099507B681B681B68FB607B681B681A6891
:104F0C007B681B6801218A431A60FB680B4A1340BB
:104F1C00FB607B6800225A667B681B68FA681A6023
:104F2C007B688822202199507B6884220021995427
:104F3C0000231800BD4604B080BDC046FFFFFFDF54
:104F4C0080B584B000AF786039607B6884229B5C4C
:104F5C00012B01D102232EE07B688422012199547C
:104F6C007B688822242199507B681B681B68FB6036
:104F7C007B681B681A687B681B6801218A431A606E
:104F8C007B681B689B68DB00D9087B681B683A68E8
:104F9C000A439A607B68180000F0BCF87B681B68B9
:104FAC00FA681A607B688822202199507B688422D9
:104FBC000021995400231800BD4604B080BD0000A8
:104FCC0080B584B000AF786039607B6884229B5CCC
:104FDC00012B01D102232FE07B68842201219954FB
:104FEC007B688822242199507B681B681B68FB60B6
:104FFC007B681B681A687B681B6801218A431A60EE
:10500C007B681B689B680E4A134019007B681B6801
:10501C003A680A439A607B68180000F07BF87B685A
:10502C001B68FA681A607B688822202199507B687B
:10503C0084220021995400231800BD4604B080BD81
:10504C00FFFFFFF1B0B58AB000AFF860B960BB1DCF
:10505C001A80FB688C229B58202B56D1BB68002BE6
:10506C0003D0BB1D1B88002B01D101234EE0FB6834
:10507C009A6880235B019A4209D1FB681B69002B5B
:10508C0005D1BB680122134001D001233EE0FB682F
:10509C000122DA66FB6800221A6727257C19BB1DE2
:1050AC001A88B968FB681800FFF7C8FC0300237066
:1050BC007B191B78002B24D1FB68DB6E012B1CD1D8
:1050CC00FB681B6810221A62EFF310837B617B690B
:1050DC003B620123BB61BB6983F31088C046FB684C
:1050EC001B681A68FB681B6810210A431A603B6A2C
:1050FC00FB61FB6983F3108803E02723FB18012273
:10510C001A702723FB181B7800E002231800BD46F9
:10511C000AB0B0BDF0B585B000AF78607B685B6E4F
:10512C00002B08D17B686A22012199527B68682286
:10513C000121995243E00F26BB1908221A700E2048
:10514C003B1808221A707B681B689B685B0EDAB2EE
:10515C000D243B1907210A401A707B681B689B6859
:10516C005B0FDAB20C257B1907210A401A703B1829
:10517C001B787A19127814498A5C5A4310007B19EF
:10518C001B78124AD35C1900FBF71CF8030099B288
:10519C007B686A229952BB191B783A1912780A4912
:1051AC008A5C5A4310003B191B78084AD35C1900DF
:1051BC00FBF708F8030099B27B6868229952C04645
:1051CC00BD4605B0F0BDC04628B9000830B900088E
:1051DC0080B500AFFEF71EFF00F016F8FA239B0017
:1051EC001800FEF753FF00F085F800F0B5F900F059
:1051FC0047FB00F0A1F800F0D5F900F027FA00F019
:10520C0063FD00F0C3FFFCE790B593B000AF102432
:10521C003B19180038231A00002106F0B5FA3B00A0
:10522C00180010231A00002106F0AEFA80239B0010
:10523C001800FEF701FE3B1902221A603B1980226E
:10524C005200DA6021007B1800221A617B18402280
:10525C005A617B180222DA617B1802221A627B18CF
:10526C0000225A627B1808229A627B1880229202D2
:10527C00DA627B18802292041A637B1880229205D2
:10528C005A637B181800FDF7B9FB031E01D000F020
:10529C002BF83B0007221A603B0002225A603B00AD
:1052AC0000229A603B000022DA603B0002211800C9
:1052BC00FDF7BEFE031E01D000F016F8C046BD4639
:1052CC0013B090BD80B582B000AF78607B681B686E
:1052DC00044A934201D1FEF7BDFEC046BD4602B062
:1052EC0080BDC0460048014080B500AF72B6C046D4
:1052FC00C046FDE780B582B000AF0E4B5A6B0D4B2C
:10530C0001210A435A630B4B5B6B012213407B60F8
:10531C007B68084B5A6B074B02210A435A63054BB7
:10532C005B6B022213403B603B68C046BD4602B03B
:10533C0080BDC0460010024080B584B000AF3B1D5C
:10534C0018000C231A00002106F01EFA444B454AA3
:10535C001A60434B8022D2055A60414B00229A605E
:10536C003F4B0022DA603E4B802292031A613C4B89
:10537C0004225A613A4B00221A76394B00225A7693
:10538C00374B01229A76364B0422DA61344B0022D9
:10539C005A62334B00229A62314B2C2200219954D1
:1053AC002F4B00221A632E4B07225A632C4B0022E0
:1053BC009A632B4B3C2200219954294B0022DA642E
:1053CC00274B1800FCF7E2FB031E01D0FFF78CFF04
:1053DC003B1D01221A603B1D00225A603B1D00221E
:1053EC009A603A1D1E4B11001800FCF71DFE031E9F
:1053FC0001D0FFF779FF3B1D1B4A1A603B1D0422AD
:10540C005A603A1D164B11001800FCF70DFE031ED6
:10541C0001D0FFF769FF3B1D144A1A603B1D08229F
:10542C005A603A1D0E4B11001800FCF7FDFD031ECF
:10543C0001D0FFF759FF3B1D0D4A1A603B1D0C2292
:10544C005A603A1D064B11001800FCF7EDFD031EC7
:10545C0001D0FFF749FFC046BD4604B080BDC04631
:10546C00900000200024014002000004001000B055
:10547C00002000B490B58BB000AF786014243B19B9
:10548C00180014231A00002106F07EF97B681B68B3
:10549C002D4A934254D12D4B1A6C2C4B802149032D
:1054AC000A431A64294B1A6C80235B0313403B613B
:1054BC003B69264B5A6B254B01210A435A63234BFC
:1054CC005B6B01221340FB60FB683B1903221A60E3
:1054DC003B1903225A603B1900229A603A19A02307
:1054EC00DB0511001800FEF7F1F8194B194A1A6088
:1054FC00174B05225A60164B00229A60144B00225F
:10550C00DA60134B80221A61114B802252005A61CF
:10551C000F4B8022D2009A610D4B2022DA610C4B8A
:10552C0000221A620A4B1800FEF734FA031E01D04F
:10553C00FFF7DAFE7B68064A1A65054B7A689A62B1
:10554C00C046BD460BB090BD002401400010024087
:10555C00F40000201C00024080B582B000AF104B5C
:10556C009A6B0F4B01210A439A630D4B9B6B0122E3
:10557C0013407B607B68002200210920FEF724FD8C
:10558C000920FEF736FD002200210A20FEF71CFD43
:10559C000A20FEF72EFDC046BD4602B080BDC046B7
:1055AC000010024080B588B000AF1023FB18180023
:1055BC0010231A00002106F0E7F83B1D18000C23FD
:1055CC001A00002106F0E0F81F4B8022D2051A6069
:1055DC001D4B00225A601C4B00229A601A4B012270
:1055EC005242DA60184B00221A61174B00229A6162
:1055FC00154B1800FAF7E5FF031E01D0FFF774FEF8
:10560C0010217B18802252011A607A180E4B11005F
:10561C001800FBF70DFC031E01D0FFF765FE3B1DC8
:10562C0000221A603B1D00229A603A1D064B1100A5
:10563C001800FCF7D3F8031E01D0FFF755FEC04647
:10564C00BD4608B080BDC0465001002080B58AB070
:10565C0000AF1C23FB1818000C231A00002106F0C5
:10566C0093F83B0018001C231A00002106F08CF85C
:10567C00334B344A1A60324B3F225A60304B002273
:10568C009A602F4B304ADA602D4B00221A612C4B5A
:10569C0000229A612A4B1800FBF78CF8031E01D0EC
:1056AC00FFF722FE1C217B1800221A607B180022B7
:1056BC009A607A18224B11001800FCF78FF8031E21
:1056CC0001D0FFF711FE3B0060221A603B00002264
:1056DC005A603B0000229A603B0000221A6139009C
:1056EC00174B00221800FBF7A3FA031E01D0FFF79B
:1056FC00FBFD3900124B04221800FBF799FA031E2C
:10570C0001D0FFF7F1FD39000D4B08221800FBF713
:10571C008FFA031E01D0FFF7E7FD3900084B0C226E
:10572C001800FBF785FA031E01D0FFF7DDFD044BD3
:10573C00180000F045F8C046BD460AB080BDC04612
:10574C009C01002000040040E703000080B584B0F9
:10575C0000AF78607B681A688023DB059A420BD116
:10576C00074BDA6B064B01210A43DA63044BDB6B04
:10577C0001221340FB60FB68C046BD4604B080BDEF
:10578C000010024080B584B000AF78607B681B6865
:10579C00094A93420BD1094BDA6B084B02210A439D
:1057AC00DA63064BDB6B02221340FB60FB68C046DE
:1057BC00BD4604B080BDC04600040040001002404D
:1057CC0090B58BB000AF786014243B1918001423EB
:1057DC001A00002105F0D8FF7B681B68254A93420C
:1057EC0043D1254B5A6B244B01210A435A63224B5C
:1057FC005B6B012213403B613B691F4B5A6B1E4B89
:10580C0002210A435A631C4B5B6B02221340FB6060
:10581C00FB683B19C0221A603B1902225A603B19E3
:10582C0000229A603B190022DA603B1901221A61AE
:10583C003A19A023DB0511001800FDF747FF2100E2
:10584C007B1803221A607B1802225A607B180022F4
:10585C009A607B180022DA607B1801221A617B188F
:10586C00064A19001000FDF731FFC046BD460BB0CB
:10587C0090BDC046000400400010024000040050DF
:10588C0080B500AF224B234A1A60214B224A5A6042
:10589C001F4B00229A601E4B0022DA601C4B002228
:1058AC001A611B4B0C225A61194B00229A61184B3E
:1058BC000022DA61164B00221A62154B00225A6242
:1058CC00134B00229A62124B1800FEF703FC031EC6
:1058DC0001D0FFF709FD0E4B00211800FFF730FB3C
:1058EC00031E01D0FFF700FD094B00211800FFF744
:1058FC0067FB031E01D0FFF7F7FC054B1800FFF701
:10590C00E5FA031E01D0FFF7EFFCC046BD4680BD93
:10591C00E801002000380140A068060090B595B061
:10592C0000AF78603C23FB18180014231A000021E8
:10593C0005F02AFF14243B19180028231A00002113
:10594C0005F022FF7B681B68374A934267D13B19ED
:10595C0001221A603B1900225A603B191800FDF70E
:10596C003BFD031E01D0FFF7BFFC304B1A6C2F4BD5
:10597C008021C9010A431A642C4B1A6C8023DB0169
:10598C0013403B613B69294B5A6B284B02210A435C
:10599C005A63264B5B6B02221340FB60FB683C2175
:1059AC007B18C0221A607B1802225A607B180022D6
:1059BC009A607B180022DA607B1800221A617B182F
:1059CC001B4A19001000FDF781FE1A4B1A4A1A6087
:1059DC00184B32225A60174B00229A60154B00224A
:1059EC00DA60144B80221A61124B00225A61114B5F
:1059FC0000229A610F4B0022DA610E4B00221A62D0
:105A0C000C4B1800FDF7C6FF031E01D0FFF76CFC12
:105A1C007B688021074A5A50064B7A689A62C046C6
:105A2C00BD4615B090BDC046003801400010024084
:105A3C00000400507C0200200800024080B500AF3A
:105A4C00C046FDE780B500AFC046FDE780B500AFAE
:105A5C00C046BD4680BD80B500AFC046BD4680BDCA
:105A6C0080B500AFC046BD4680BD000080B500AF1C
:105A7C00034B1800FEF79EF8C046BD4680BDC046DD
:105A8C007C02002080B500AF034B1800FEF792F8A3
:105A9C00C046BD4680BDC046F400002080B500AFB6
:105AAC00034B1800FAF7BCFFC046BD4680BDC0468C
:105ABC00D802002080B582B000AF0F4B1A6C0E4B91
:105ACC0001210A431A640C4B1B6C012213407B60AE
