:020000040800F2
:10000000002000200D340008C1320008C33200086F
:1000100000000000000000000000000000000000E0
:10002000000000000000000000000000C5320008D1
:100030000000000000000000C7320008C9320008BC
:100040005D3400085D3400085D3400085D3400084C
:100050005D3400085D3400085D3400085D3400083C
:1000600000000000CD320008DD3200085D340008D9
:100070005D3400085D3400085D3400085D3400081C
:100080005D3400085D3400085D3400085D3400080C
:10009000000000005D340008ED3200085D34000807
:1000A0005D3400085D3400085D3400085D340008EC
:0C00B0005D3400085D3400080000000012
:1000BC0002B4714649084900095C49008E4402BCEF
:1000CC007047C046002243088B4274D303098B420D
:1000DC005FD3030A8B4244D3030B8B4228D3030C0C
:1000EC008B420DD3FF22090212BA030C8B4202D3AE
:1000FC001212090265D0030B8B4219D300E0090AD6
:10010C00C30B8B4201D3CB03C01A5241830B8B42DE
:10011C0001D38B03C01A5241430B8B4201D34B03C7
:10012C00C01A5241030B8B4201D30B03C01A52412C
:10013C00C30A8B4201D3CB02C01A5241830A8B42B1
:10014C0001D38B02C01A5241430A8B4201D34B029A
:10015C00C01A5241030A8B4201D30B02C01A5241FE
:10016C00CDD2C3098B4201D3CB01C01A52418309B2
:10017C008B4201D38B01C01A524143098B4201D3EC
:10018C004B01C01A524103098B4201D30B01C01A17
:10019C005241C3088B4201D3CB00C01A5241830891
:1001AC008B4201D38B00C01A524143088B4201D3BE
:1001BC004B00C01A5241411A00D20146524110461E
:1001CC007047FFE701B5002000F0F0F802BDC04613
:1001DC000029F7D076E7704703460B437FD4002203
:1001EC0043088B4274D303098B425FD3030A8B42BF
:1001FC0044D3030B8B4228D3030C8B420DD3FF2229
:10020C00090212BA030C8B4202D31212090265D0F6
:10021C00030B8B4219D300E0090AC30B8B4201D3A9
:10022C00CB03C01A5241830B8B4201D38B03C01AF0
:10023C005241430B8B4201D34B03C01A5241030B67
:10024C008B4201D30B03C01A5241C30A8B4201D318
:10025C00CB02C01A5241830A8B4201D38B02C01AC3
:10026C005241430A8B4201D34B02C01A5241030A3A
:10027C008B4201D30B02C01A5241CDD2C3098B421F
:10028C0001D3CB01C01A524183098B4201D38B019C
:10029C00C01A524143098B4201D34B01C01A52413F
:1002AC0003098B4201D30B01C01A5241C3088B4284
:1002BC0001D3CB00C01A524183088B4201D38B006F
:1002CC00C01A524143088B4201D34B00C01A524111
:1002DC00411A00D201465241104670475DE0CA0FE8
:1002EC0000D04942031000D34042534000229C46A8
:1002FC0003098B422DD3030A8B4212D3FC228901B2
:10030C0012BA030A8B420CD3890192118B4208D387
:10031C00890192118B4204D389013AD0921100E0E9
:10032C008909C3098B4201D3CB01C01A52418309FD
:10033C008B4201D38B01C01A524143098B4201D32A
:10034C004B01C01A524103098B4201D30B01C01A55
:10035C005241C3088B4201D3CB00C01A52418308CF
:10036C008B4201D38B00C01A5241D9D243088B4225
:10037C0001D34B00C01A5241411A00D201466346C8
:10038C0052415B10104601D34042002B00D549422C
:10039C00704763465B1000D3404201B5002000F06B
:1003AC0005F802BD0029F8D016E770477047C04623
:1003BC00844608006146FFE71FB504F07DFB00286A
:1003CC0001D40021C8421FBD10B504F005FB40420A
:1003DC00013010BD10B504F06FFB002801DB0020CC
:1003EC0010BD012010BDC04610B504F065FB0028FF
:1003FC0001DD002010BD012010BDC04610B504F079
:10040C0013FB002801DC002010BD012010BDC046EC
:10041C0010B504F009FB002801DA002010BD012002
:10042C0010BDC046002B11D1002A0FD1002900D1DC
:10043C00002802D00021C943080007B4024802A1D9
:10044C004018029003BDC04665FFFFFF03B4684629
:10045C0001B5029803F0D0FE019B9E4602B00CBC85
:10046C007047C0461C2101231B04984201D3000C89
:10047C0010391B0A984201D3000A08391B0998420B
:10048C0001D30009043902A2105C40187047C04621
:10049C000403020201010101000000000000000041
:1004AC0010B5002903D1FFF7DDFF203002E0080072
:1004BC00FFF7D8FF10BDC0460448054B10B583426A
:1004CC0003D0044B002B00D0984710BD5C000020DB
:1004DC005C0000200000000006480749091A8B1038
:1004EC00C90FC91810B5491003D0044B002B00D00C
:1004FC00984710BD5C0000205C000020000000004C
:10050C0010B5074C2378002B09D1FFF7D5FF054B0D
:10051C00002B02D0044800E000BF0123237010BD63
:10052C005C0000200000000060550008054B10B571
:10053C00002B03D00449054800E000BFFFF7CCFFB7
:10054C0010BDC0460000000060000020605500088F
:10055C007047000070B50124036A026AA24302626C
:10056C004468124A856915400A6815430222934370
:10057C008A6813430E4A904205D00E4A904202D02C
:10058C000D4A90420BD108229343CA688E691343DB
:10059C0004229343094A22404C69344314434A6869
:1005AC00446085614263036270BDC0468CFFFEFFF0
:1005BC00002C01400044014000480140FFFCFFFFBB
:1005CC0070B5174A056A036A134003624268154BFB
:1005DC00C4691C400B681C43134B1D408B681B02E9
:1005EC002B43124DA8420ED1114D1D40CB681B025E
:1005FC002B43104D2B40104D8E6915404A693243E8
:10060C0012012A4305E00D4DA842F4D00C4DA8422E
:10061C00F1D042604A68C461C263036270BDC046D7
:10062C00FFFEFFFF8CFFFEFFFFFDFFFF002C0140D4
:10063C00FFF7FFFFFFFBFFFFFFCFFFFF0044014071
:10064C000048014030B5124A046A036A114D134048
:10065C0003624368C2692A400D682D0215430E4A95
:10066C0014408A68120322430C4CA04205D00C4C57
:10067C00A04202D00B4CA04204D10B4C1C404B6945
:10068C009B01234343604B68C5610364026230BD28
:10069C00FFEFFFFFFF8CFFFEFFDFFFFF002C014091
:1006AC000044014000480140FFBFFFFF70B5066ADF
:1006BC00104C036A104A234003624368456D154091
:1006CC000A6815430D4A16408A68120432430C4ED0
:1006DC00B04205D00B4EB04202D00B4EB04203D10B
:1006EC001C404B691B02234343604B684565836583
:1006FC00026270BDFFFFFEFF8FFFFEFFFFFFFDFFDD
:10070C00002C0140004401400048014030B5124A21
:10071C00046A036A114D134003624368426D2A4018
:10072C000D682D0215430E4A14408A6812052243A7
:10073C000C4CA04205D00C4CA04202D00B4CA04259
:10074C0004D10B4C1C404B699B02234343604B6808
:10075C004565C365026230BDFFFFEFFFFF8FFFFEF3
:10076C00FFFFDFFF002C0140004401400048014026
:10077C00FFFFFBFF01000300012010B53D310C7899
:10078C00E2B2844219D1001808701B680C498B42E4
:10079C0006D08021C9058B4202D00A498B420DD16B
:1007AC009A6809490A40062A06D007398A4203D0BA
:1007BC00012219680A431A60002010BD1968F9E774
:1007CC00002C014000040040070001000100030060
:1007DC00012010B53D310C78E2B284421CD10018D6
:1007EC0008701B68D9681143D9600D498B4206D03B
:1007FC008021C9058B4202D00A498B420DD19A68DF
:10080C0009490A40062A06D007398A4203D0012238
:10081C0019680A431A60002010BD1968F9E7C04630
:10082C00002C014000040040070001007047704795
:10083C00704770470222036870B5DD681E690400BA
:10084C0016420DD015420BD0053A1A6104320277CC
:10085C009B699B0700D17CE0FFF7E9FF002323771E
:10086C0004231E4212D01D4210D00522236852428E
:10087C001A61073222779A69C0239B0020001A4222
:10088C0000D16CE0FFF7D3FF0023237708231E422F
:10089C000FD01D420DD00922236852421A610D322D
:1008AC002277DB6920009B075FD0FFF7C0FF002396
:1008BC00237710231E4211D01D420FD01122236822
:1008CC0052421A6119322277DA69C0239B00200048
:1008DC001A4250D0FFF7ABFF0023237701231E42AF
:1008EC0008D01D4206D002222368524220001A6111
:1008FC0002F062FA82239B011E4207D02B0605D51B
:10090C002368204A20001A6100F003FBF30507D589
:10091C002B0605D523681C4A20001A6100F0FAFA50
:10092C0040231E4208D01D4206D041222368524269
:10093C0020001A61FFF77DFF20231E4208D01D42C4
:10094C0006D021222368524220001A6100F0E0FAFE
:10095C0070BDFFF76BFF2000FFF76AFF7EE7FFF724
:10096C0065FF2000FFF764FF8EE7FFF75FFF2000B5
:10097C00FFF75EFF9BE7FFF759FF2000FFF758FFDB
:10098C00AAE7C0467FDFFFFFFFFEFFFF10B51C4C40
:10099C000368A04206D08022D205904202D0194AA8
:1009AC00904208D1702293434A681343164A1A4066
:1009BC00CB68134308E0154A9042F7D0144A904292
:1009CC00F4D0144A9042F1D0802293434A691343E5
:1009DC0003608B68C3620B688362A04205D00C4B2A
:1009EC00984202D00B4B984201D10B690363012250
:1009FC0042610369134202D003699343036110BD42
:100A0C00002C014000040040FFFCFFFF00200040D0
:100A1C00004401400048014070B504000120002C46
:100A2C0023D025003D352B78DAB2002B05D12300DD
:100A3C003C3320001A7002F0EFFA02232B7020686E
:100A4C00211DFFF7A3FF2200012300204832137061
:100A5C0047340A3A137053709370D37013715371F7
:100A6C009371D371137223702B7070BD70B5040029
:100A7C000120002C23D025003D352B78DAB2002B39
:100A8C0005D123003C3320001A7002F0D9FA02235E
:100A9C002B702068211DFFF779FF22000123002015
:100AAC004832137047340A3A137053709370D370F2
:100ABC00137153719371D371137223702B7070BDBA
:100ACC00102270B5056A036A164C934303624268A0
:100ADC00836923400C6824021C4320239D438B68AC
:100AEC001B012B43104DA8420FD18025AB431E0098
:100AFC00CB68403D1B013343AB430C4D8E69154015
:100B0C004A69324392002A4305E0094DA842F4D0C9
:100B1C00084DA842F1D042604A6884618263036246
:100B2C0070BDC046FF8CFFFE002C0140FFF3FFFFA1
:100B3C000044014000480140F8B507003C3715005F
:100B4C003A7803000C000220012A0CD001383870CE
:100B5C000C2D51D008D8042D2DD0082D3CD0002DB3
:100B6C0017D000233B70F8BD102D58D0142DF8D1A0
:100B7C001D682800FFF7CAFD80236A6D1B01134313
:100B8C006B656B6D2E4A13406B6523696A6D1B0296
:100B9C0053E01D682800FFF7DDFC0823AA69134306
:100BAC000422AB61AB699343AB61AB69226913431C
:100BBC00AB610020D5E71D682800FFF781FF80237B
:100BCC00AA691B011343AB61AB691D4A1340AB61AE
:100BDC002369AA691B02EAE71E683000FFF7F0FCE4
:100BEC000422F3691D43F561F3699343F361F369DF
:100BFC0022691343F361DCE71D682800FFF722FD2F
:100C0C008023EA691B011343EB61EB690C4A134027
:100C1C00EB612369EA691B021343EB61C9E71D68A9
:100C2C002800FFF743FD08236A6D134304226B650C
:100C3C006B6D93436B656B6D226913436B65B8E702
:100C4C00FFFBFFFF30B58468034D0A431B022C40A9
:100C5C0013432343836030BDFF00FFFFF8B505004D
:100C6C0002223C352C7803001000012C1BD01E00F6
:100C7C0001383D36287032701C68414AA368134015
:100C8C00A3600B68602B4ED02DD8402B62D013D8AC
:100C9C00202B0BD008D810221900914306D0012329
:100CAC00337000232B70F8BD302BF8D1A268354976
:100CBC000A401343072228E0502BF0D14A68CB6836
:100CCC00216A276A1B0187432762F027A069B84372
:100CDC0003430A2081430A43A3612262294BA26881
:100CEC001A40572311E08022520193420FD08022E8
:100CFC00920193420DD0702BD1D1CB684A68200061
:100D0C008968FFF79FFF7723A2681343A360002035
:100D1C00C5E7CB684A6820008968FFF793FF8023FA
:100D2C00A268DB01F1E710274B68CA68216A206AC8
:100D3C001203B8432062A069134F1B0138400243D1
:100D4C00A02081430B43A2612362A2680D4B1A4081
:100D5C006723DAE74A68CB68216A276A1B01874355
:100D6C002762F027A069B84303430A2081430A4352
:100D7C00A3612262034BA2681A404723C5E7C04611
:100D8C008800CEFF8FFFCFFFFF0FFFFF1F2310B593
:100D9C00012419408C408A40036AA3430362036A0E
:100DAC001A43026210BD0000020010B508291CD0C5
:100DBC0006D800290BD0042914D01300433308E0C3
:100DCC000C2915D01029F8D10300423301E003009F
:100DDC003E331B78013B581E8341DBB20120002BB4
:100DEC0009D010BD03003F33F3E703004033F0E7B5
:100DFC0003004133EDE70223082930D006D800293F
:100E0C000BD0042928D01000433008E00C2929D03D
:100E1C001029F8D11000423001E010003E30037070
:100E2C00146801222000FFF7B1FF184A944205D044
:100E3C00174B9C4202D0174B9C4216D18023616CFD
:100E4C001B020B436364944216D1A368124A1340ED
:100E5C00062B16D10020C4E710003F30DFE710004E
:100E6C004030DCE710004130D9E78023DB059C42A1
:100E7C00EBD00A4B9C42E8D0012322681343236039
:100E8C00E8E7802252029342F6D1E3E7002C0140BE
:100E9C0000440140004801400700010000040040EC
:100EAC0010B5FFF781FF10BDF0B5040002223C34F1
:100EBC00257803001000012D23D01D003D352A702C
:100ECC001A68104E53689068B24203D10E4F3B40E3
:100EDC004F683B437027BB430F683B435360B242A0
:100EEC0006D08023DB059A4202D0084B9A4204D1EB
:100EFC00802398438B6818439060012300202B704B
:100F0C002070F0BD002C0140FFFF0FFF00040040DB
:100F1C0070477047704780684007C00F70470000EB
:100F2C000023F0B585B004000393984200D1F0E0A3
:100F3C00856D9D4205D101F0CBFF23005433E5654F
:100F4C001D70802325685B05AA681A4200D1A7E0B2
:100F5C000022AB680192DB0008D410230126A26D9D
:100F6C0001961343A365E36D3343E3652800FFF754
:100F7C00D2FF1022A36D1340034300D0CCE0A26D2E
:100F8C00674B20691A400633FF331343A365AB68E4
:100F9C00DB0761D4276BE1687B1E9F41A368A27EAF
:100FAC000B43217E3F0389030B43617EC9030B4333
:100FBC0051030B439C46002800DB86E041004908A6
:100FCC00230066462C331B785B0033433B430B43B7
:100FDC00611CC97F012905D1002A00D078E080224C
:100FEC0052021343626A002A05D0E02149000A40EC
:100FFC00A16A0A431343EA684A490A401343EB6067
:10100C00230062683C33E16C1B78970FBF079C464A
:10101C003943012B08D1236C666C33430B43A16C11
:10102C000B4361463B4319432B693F4F3B400B43FA
:10103C0080212B6153005B08C9058B420CD08023A7
:10104C001B069A4208D03949394F0B683B40F027B0
:10105C00BF033A4013430B60072170276B69626B27
:10106C008B4313436B616969A36BB9431B010B433E
:10107C006B61002834D11023A96A5B420B43AB622D
:10108C0007216B690B409A4239D10023E365A26DAD
:10109C0003339A43023B1343A365019805B0F0BD9B
:1010AC00AA6824490A401343AB60234B23491868B0
:1010BC00FFF708F8013040000390039B002B00D190
:1010CC0046E7039B013B0393F7E78021890377E70E
:1010DC002022A76D3A43A265E26D1143E16581E7D9
:1010EC0080239B039842CBD11C21AB6AE369013B63
:1010FC009B000B402C3999400B00216EBEE712234C
:10110C00A26D9A43023B1343A3650123E26D134383
:10111C00E36501230193C0E7A36D1A43A265F8E7C9
:10112C00FDFEFFFF0102DEFF02FCFF1F082701404E
:10113C00FFFFC3FFE8FFFF6F00000020400D03001E
:10114C007047704710B5806AFFF7FBFF10BD704702
:10115C004023806A10B5826D134383650423C26DEE
:10116C001343C365FFF7F3FF10BD0000502370B5A8
:10117C00846AA26D1A422DD1A26DB133FF33134391
:10118C00A365C02325681B01EA681A4215D1A37E0A
:10119C00002B12D12B681B070FD52800FFF7BBFEC5
:1011AC0000280ED10C226B6893436B60A26D0F4B21
:1011BC001A400433FF331343A3652000FFF7C0FF2D
:1011CC0070BD2023A26D1343A3650123E26D13436D
:1011DC00E365F2E7A36DDB0603D52000FFF7B7FF4D
:1011EC00EEE7236D5B6B9847EAE7C046FEFEFFFF18
:1011FC000023F0B585B003930300009154331A78A3
:10120C0004000220012A4DD0012227691A7025689A
:10121C002800FFF780FE002800D0F7E0009B042296
:10122C005B6880219C4697436246009B09061B68BD
:10123C00022A00D1BEE05A03520B8F4234D1A96A64
:10124C000A43AA62009A686992681902724E0A40AF
:10125C003240884302436A61002B1FDAE0216F4A57
:10126C006F48156849042940834200D08CE08020E7
:10127C000004054212D113686A4D2B400B431843EE
:10128C00694B106018686949FEF71CFF431C0C2061
:10129C0058430390039B002B00D071E000200023E7
:1012AC005434237005B0F0BD1F2167460F40103930
:1012BC00B940CE430196266E8E433100002A12D1DE
:1012CC00980E1F321040B840624608439208E169FC
:1012DC00013220668A42B5D8A96A01989A00120F89
:1012EC00BA400140ACE701221342ECD192181342F0
:1012FC0024D10426334223D11A0723D4DA0623D46B
:10130C009A0623D45A0623D41A0623D4DA0523D4F6
:10131C009A0523D45A0523D41A0523D4DA0423D4EA
:10132C009A0423D45A0423D41A0423D4DA0323D4DE
:10133C009A0323D45A03C6D51220C4E70120C2E76E
:10134C001000C0E70320BEE70420BCE70520BAE785
:10135C000620B8E70720B6E70820B4E70920B2E773
:10136C000A20B0E70B20AEE70C20ACE70D20AAE773
:10137C000E20A8E70F20A6E71020A4E71120A2E773
:10138C00039B013B039385E7294883420BD18020C3
:10139C004004054200D081E71368224D2B400B43DB
:1013AC00184310607AE72348834200D076E7802008
:1013BC00C003EEE78F4204D1AA6A5903490B8A4352
:1013CC00AA62002B00DB69E7144A154811688342B6
:1013DC0008D1A02310685B040B40124901400B4359
:1013EC0013605BE71248834203D1C02310681B04CF
:1013FC00F2E71048834200D050E7C0204004136845
:10140C000140084803401943116047E72023A26DAF
:10141C0001201343A36542E700FFFF0708270140A3
:10142C00001000B0FFFF3FFE00000020400D030045
:10143C00004000B8002000B40023F7B50268019307
:10144C00916801330400194201D00020FEBD906860
:10145C002249084208D01022A16D0A43A265E26D10
:10146C0013430120E365F1E791681D4F39400B43AD
:10147C0093601C4B1B681B0221D4637E012BE4D0B0
:10148C0001F000F801250600226813682B42DCD11C
:10149C0093682B4203D193683B402B43936000F03D
:1014AC00F1FF801B0228EFD923681B682B42EBD17C
:1014BC001023A26D1343A365E36D2B43D1E70A4BB5
:1014CC000A491868FEF7FEFD01300190019B002BC4
:1014DC00D3D0019B013B0193F8E7C0461700008075
:1014EC00E8FFFF7F0827014000000020400D0300AB
:1014FC00F7B50568040028000E000192FFF70BFDFC
:10150C00022300283FD1270054373A78012A3AD0D9
:10151C00013B3B70EA681A420CD1AA681A4205D00A
:10152C00AA681A4B1A4002231343AB600123EA68E2
:10153C001343EB602000FFF77FFF031E23D1A16D47
:10154C00134A1140802252000A43A265E065114AF9
:10155C00206D2168C262104A0263104A42631C2249
:10156C000A603B704A68103313434B603200019B96
:10157C00403100F069FE03002068044A8168114084
:10158C0004220A4382601800FEBDC046E8FFFF7FBC
:10159C00FEF0FFFF79110008511100085D110008E1
:1015AC000122036870B5040098689968114201D152
:1015BC00002070BD02210842FAD105209D6805402B
:1015CC00012D1ED19A6813480240114303229960E1
:1015DC001A6000F057FF060023689B682B42E7D087
:1015EC0000F050FF801B0228F6D923689B682B4221
:1015FC00F2D01023A26D1343A365E36D2B43E36577
:10160C0006E01023A16D0B43A365E36D1A43E2655D
:10161C000120CEE7E8FFFF7FF0B500230500022292
:10162C0085B0029354352B7804000092012B3ED0E8
:10163C0001262E70FFF7B4FF2368009099680A000A
:10164C003240314206D01023A26D1343A365002310
:10165C002B702CE08026A06D4249360608400631DE
:10166C00FF310143A165D8683F49B4460840019059
:10167C00D9683E4801400820D9603D4967469E68BC
:10168C000E403E439E609E68002E13DA029E013689
:10169C000296029F374EB742F5D91223A26D9A4398
:1016AC00023B1343A36500232B7001230093009886
:1016BC0005B0F0BD1E007F27B436366801383E40B9
:1016CC0092190028DAD101269868D20808403043D4
:1016DC00986080201F69C00587421CD31E007F279D
:1016EC00B4363068B843104330609A680126114014
:1016FC0002220A439A6000F0C5FE070023689A682C
:10170C0032421ED1DA6801990A43DA600322A36DD2
:10171C00934333439AE718480768F0208003384016
:10172C00E0277F03B842D9D3800C03388640039658
:10173C0003984008039003980028CFD003980138F1
:10174C00F8E700F09FFEC01B0228D7D923689B68DE
:10175C003342D3D01023A26D1343A365E36D3343FF
:10176C00E365A2E7FDFEFFFF03800000FC7FFFFFA7
:10177C00E8FFFF7FFFF1020008270140F0B50400ED
:10178C0085B0002802D1012005B0F0BD0368DB074D
:10179C0010D423689B075CD423681B0700D5C1E0D9
:1017AC0023685B0700D5F2E0E369002B00D079E1F8
:1017BC000020E9E73822AF4DAB681340EA68102BE4
:1017CC0009D1D3439B0708D12B689B03E1D56368F0
:1017DC00002BDED1D7E7082BF6D0802263685202AB
:1017EC00934211D12A6813432B6000F04BFE8027E3
:1017FC000600BF022B683B42CBD100F043FE801B9E
:10180C006428F7D90320BFE7A021C9028B4208D175
:10181C0080232968DB020B432B602B681A432A6058
:10182C00E3E72A6894490A402A602A6893490A40E7
:10183C002A60002BD9D100F025FE80270600BF02BC
:10184C002B683B42A5D000F01DFE801B6428F7D905
:10185C00D8E73822874DAB681340EA68102B28D1A3
:10186C0003210A40022A26D12A68520503D5E268D0
:10187C00002A00D187E76968626981481202014039
:10188C000A436A60002B0CD12B687E4A7E491340B8
:10189C00226913432B602B687C4A9B045B0FDA4054
:1018AC000A607B4B186801F03BFD002800D173E700
:1018BC0069E7002BD8D0E368002B20D02B68714A45
:1018CC00802713402269FF0013432B6080232A6872
:1018DC005B0013432B6000F0D5FD06002B683B42E8
:1018EC0007D06A68636966491B020A4013436B6040
:1018FC0052E700F0C7FD801B0228EFD982E72B6866
:10190C00644A802713402B6000F0BCFD0600FF00EA
:10191C002B683B4200D13FE700F0B4FD801B02284E
:10192C00F6D96FE73822534DAB681340182B08D10A
:10193C002B6E9B0700D433E7A369002B00D02FE755
:10194C0021E7A2690123002A10D02A6E0227134333
:10195C002B6600F097FD06002B6E3B4200D01FE774
:10196C0000F090FD801B0228F6D94BE72A6E022767
:10197C009A432A6600F086FD06002B6E3B4200D18E
:10198C000EE700F07FFD801B0228F6D93AE73822DB
:10199C00384DAB681340202B08D1EB6D9B0700D45E
:1019AC0002E7A368002B00D0FEE6ECE680220021C3
:1019BC00EB6B52050091134208D1EB6B1343EB63B5
:1019CC00EB6B13400393039B012300938027324E50
:1019DC007F0033683B4215D0A368012B22D1EA6DFE
:1019EC001343EB6500F04EFD02270600EB6D3B4206
:1019FC0038D0009B012B00D0D6E6EB6B274A134066
:101A0C00EB63D1E633683B43336000F03BFD019060
:101A1C0033683B42E0D100F035FD019BC01A02282F
:101A2C00F6D9EFE6EA6D052B05D1013B1343EB65C7
:101A3C00EA6D0123D4E701218A43EA65EA6D03319B
:101A4C008A43EA65002BCDD100F01CFD022706006D
:101A5C00EB6D3B42CDD000F015FD114B801B984235
:101A6C00F6D9CFE600F00EFD0D4B801B9842BDD988
:101A7C00C8E6C04600100240FFFFFEFFFFFFFBFF61
:101A8C00FF80FFFFFFC7FFFF000000200024F400D1
:101A9C0008000020FFFEFFFF00700040FFFFFFEF7B
:101AAC00881300003821434DAA680A40102A53D0ED
:101ABC00414A022B3AD12B68802713402B6000F04F
:101ACC00E1FC0600BF042B683B4229D1616A236A02
:101ADC00EA680B43394980260A401343E26AB6048C
:101AEC001343226B1343626B1343A26A1202134318
:101AFC00EB6080232A685B0413432B608023EA6825
:101B0C005B051343EB6000F0BDFC04002B68334213
:101B1C0000D04DE600F0B6FC001B0228F6D971E6A9
:101B2C0000F0B0FC801B0228CDD96BE62B68802618
:101B3C0013402B6000F0A6FC0400B6042B68334263
:101B4C0004D1EB681E4A1340EB6031E600F09AFCBE
:101B5C00001B0228F2D955E6012B00D113E6032213
:101B6C00E868216A02408A4200D00CE67022616A61
:101B7C0002408A4200D006E6FE21A26AC901014059
:101B8C001202914200D0FEE5F822E16A9203024073
:101B9C008A4200D0F7E5E022216B120502408A420E
:101BAC0000D0F0E5636B400F4007C01A431E98410C
:101BBC00C0B2E9E500100240FFFFFFFE8C80C111AE
:101BCC00FCFFFEEE382370B51D4CA2681A4205D1FD
:101BDC0023681C489B045B0FD84070BDA2681A4058
:101BEC00082A27D0A2681A40102A17D1E368E168A6
:101BFC00DB43E5684906490F6F322D0A0131154068
:101C0C009B0709D11048FEF75DFAE1686843490F5C
:101C1C000131FEF757FAE0E70A48F4E7A2681A40E8
:101C2C00202A09D0A26800201340182BD5D1FA2005
:101C3C00C001D2E70448D0E780200002CDE7C046BF
:101C4C00001002400024F40000127A00F7B50400E2
:101C5C000D00002801D10120FEBD0727484E336836
:101C6C003B408B422AD3226893073BD4D20748D4FB
:101C7C00072733683B40AB420AD93368BB432B433D
:101C8C00336000F0FFFB019033683B40AB4268D1FE
:101C9C0023683C4D5B076CD4FFF794FFAB683A4963
:101CAC001B051B0F9B005B581F210B40D840374A6C
:101CBC00374B1060186801F033FBCDE73368BB433A
:101CCC000B43336000F0DEFB019033683B40AB42CA
:101CDC00C9D000F0D7FB019BC01A2E4B9842F4D907
:101CEC000320B9E72749530704D5E0238868DB01B3
:101CFC0003438B608B6828480340A06803438B60C8
:101D0C00B4E760681F4F032829D8FEF7D1F92002E9
:101D1C001C243B689B039ED50722BB68934303435B
:101D2C00BB6000F0AFFB01903823BA681A406368BF
:101D3C00DB009A429CD000F0A5FB019BC01A154B0E
:101D4C009842F1D9CCE73B689B01E5D483E73B682B
:101D5C005B05E1D47FE73B6E9B07DDD47BE7FB6D36
:101D6C00FAE700F08FFB019BC01A0A4B98428BD903
:101D7C00B6E7AB68094A1340E2681343AB608BE7E4
:101D8C000020024000100240A45500080000002072
:101D9C000800002088130000FFF0FFFFFF8FFFFFFB
:101DAC00064B07499B68074A5B045B0F9B005B581B
:101DBC001F2110680B40D8407047C04600100240ED
:101DCC008455000800000020072230B5F025094B8F
:101DDC0002609C682D01144044609C682C40846017
:101DEC00E0249B68E4012340C360034B1B68134051
:101DFC000B6030BD0010024000200240F0B50368BB
:101E0C00050085B000209B0352D580225F4C520503
:101E1C00E36B0090134208D1E36B1343E363E36B72
:101E2C0013400393039B012300938027584E7F009C
:101E3C0033683B43336000F025FB019033683B4231
:101E4C0028D0E26DC02311009B00524E19401A425B
:101E5C0019D06B6A994216D08022E36DE06D19009F
:101E6C0052020243E265E26D4B4831400240E265AA
:101E7C00E165DB0707D500F005FB07000222E36DE7
:101E8C00134200D17AE0E36D6A6A334013430020B9
:101E9C00E36506E000F0F6FA019BC01A0228CDD9E2
:101EAC000320009B012B03D1E36B3C4A1340E363FB
:101EBC002B68DA0706D5032434494A6DA2436C68B3
:101ECC0022434A65DA0606D53049354C4A6D224024
:101EDC00AC6822434A659A0506D52C49314C4A6DAB
:101EEC0022406C6922434A655A0506D527492E4C77
:101EFC004A6D2240AC6922434A659A0606D52349AD
:101F0C002A4C4A6D2240EC6822434A655A040FD58C
:101F1C001E49EC694A6D9200920822434A65802260
:101F2C00D205944204D18022CC6852022243CA606A
:101F3C009A020FD515491E4E4A6D2C6A3240224327
:101F4C004A658022D203944204D18022CC68520488
:101F5C002243CA601B050FD50C4A164C536D2969D8
:101F6C0023400B4353658023DB01994204D180232A
:101F7C00D1685B020B43D36005B0F0BD00F082FA70
:101F8C000D4BC01B984200D878E789E7001002403F
:101F9C0000700040FFFCFFFFFFFFFEFFFFFFFFEFA5
:101FAC00FFF3FFFFFFFFF3FFFFFFCFFFFFCFFFFFAD
:101FBC00FFFFBFFFFF3FFFFF881300000023F0B5BA
:101FCC0085B00A681400DC4001D105B0F0BD0125D4
:101FDC0014009D402C4000942A4200D191E04A68A4
:101FEC005F0094460322644622400324BC40E44331
:101FFC000194541E012C2ED88668019C2640CC6876
:10200C00BC403443846044680126AC4325006446DC
:10201C00240934409C402C434460C568019C2540F5
:10202C008C68BC402C43C460022A16D107250F26AD
:10203C001D40AD00AE40DC08A40004190294246AD3
:10204C0003962600039CA64334000E69AE4026433B
:10205C00029C266201E0032ADFD1BA400468019D8C
:10206C0025402A43C02402606246A402224248D082
:10207C00254A03259C08A400A4180F221D40ED003E
:10208C00AA40A027266EFF0596430022B8420CD02A
:10209C001E4F0132B84208D01D4F0132B84204D055
:1020AC001C4F0332B84200D1023AAA406746324371
:1020BC002266154C009A2668009DD2433543FF02D8
:1020CC0001D435001540674625606668009D354390
:1020DC00BF0201D435001540674665600E4C009D6B
:1020EC00E66F3543BF0301D4350015406746E567FD
:1020FC000A4C009EE56F2E43FF0301D415402E00C1
:10210C00E66701335DE7C04600180240000400504A
:10211C0000080050000C005008180240041802403F
:10212C00F0B5846CC56C6560046D002C02D0446DF8
:10213C00856D65601C24056C084E25401B3CAC402D
:10214C0077683C437460046863608368102B02D129
:10215C00A260E160F0BDA160E260FBE7000002401C
:10216C0010B50400036C094A9B089B189B00436440
:10217C0000681421C0B20838FDF7A4FF044BA36417
:10218C001F2318401E3B8340E36410BD00820010E7
:10219C0080080240F8B504000120002C46D02568C8
:1021AC00254B1421E818FDF78DFF02238000A61D96
:1021BC002064F3772B68214AA76813402B60E368EF
:1021CC0021693B430B4361692A680B43A1692000D9
:1021DC000B43E1690B43216A0B4313432B60FFF75D
:1021EC00BFFF8023DB019F4201D1002363603F23AB
:1021FC006268616C13400B60E06CA16C013A486042
:10220C00032A14D80E4A0F4899180122013B9A4010
:10221C00A265130000228900216560650A60436095
:10222C0000200123E0630534F377E077F8BD002349
:10223C0023656365A365F3E7F8FFFDBF0F80FFFF20
:10224C003F82001040090240F7B5451D0193EE7F17
:10225C0004000220012E33D00138E877A71DFE7F41
:10226C00B4466346F6B200960026834230D1013064
:10227C00F8772568E6632868009B98432860019BE3
:10228C002000FFF74DFF236BB3421AD00E232A68B0
:10229C0013432B60636C1A68D20304D5802219682F
:1022AC0052000A431A60236D002B04D08022196857
:1022BC0052000A431A60012300202A6813432B6042
:1022CC00FEBD04222B6893432B602A680A23DFE7A8
:1022DC008023E363EE77F3E7F8B51C240427016C45
:1022EC00264A21403C008C40166803681D68264233
:1022FC000FD03D420DD01968890602D41968B94334
:10230C00196053681C43036B5460002B1BD0984717
:10231C0019E002273C008C40264215D03D4213D0D8
:10232C001968890606D40A251968A9431960012180
:10233C00831DD97753681C4354600022431DDA7700
:10234C00C36A9342E3D1F8BD082427008F403E4274
:10235C00F9D02542F7D00E251C68AC431C60012334
:10236C001D008D402900546821435160821DC363B8
:10237C00D3770022431DDA77436BE2E7000002407B
:10238C0010B5114C1149236802000B400343236024
:10239C00802300209B009A420ED10D4B0D491868EA
:1023AC0006235843FDF78EFE8022431CD200616940
:1023BC0008001040114200D110BD002B01D0013B90
:1023CC00F5E70320F8E7C04600700040FFF9FFFF77
:1023DC000000002040420F0010B5FF2403220B0028
:1023EC0021000240D20091409B012340C9439340FD
:1023FC0000280ADBC0240B4A800880008018A40047
:10240C0002590A401343035110BD0F2210400838E3
:10241C00054A800880008018C26911401943C161C7
:10242C00F2E7C04600E100E000ED00E0002805DB2B
:10243C001F2318401E3B8340014A13607047C0465F
:10244C0000E100E08023084A5B00116810B50B43E3
:10245C000320136000F064FF041E03D100F048FF5A
:10246C00200010BD0124FBE700200240034A044B6E
:10247C0011681B785B1813607047C0467800002009
:10248C0004000020014B18687047C04678000020FB
:10249C0070B50400FFF7F6FF0500631C02D0044B77
:1024AC001B78E418FFF7EEFF401BA042FAD370BD77
:1024BC000400002030B5EFF31084012282F3108861
:1024CC00C02501680B68AB430B6084F31088EFF3F5
:1024DC00108182F310880268044C93682340936047
:1024EC0081F3108820238830036030BDFFFF7FFF0D
:1024FC0030B5EFF31084012282F310880168134D7C
:10250C000B682B400B6084F31088EFF3108182F37F
:10251C00108802680E4C93682340936081F31088F6
:10252C00C36E012B0AD1EFF3108183F310881024B2
:10253C0002681368A343136081F310880300202200
:10254C008C331A600023C366436730BDDFFEFFFF88
:10255C00FEFFFFEF70477047704770B5846A230029
:10256C0088331A685D6823689B681B0608D5212A86
:10257C0006D123000022563320001A80FFF79AFF61
:10258C0023689B685B0608D5222D06D12300002208
:10259C005E3320001A80FFF7ABFF2200102390322D
:1025AC00116820000B431360FFF7D6FF70BD0123A9
:1025BC00806A10B50367C36E012B06D103005C3330
:1025CC001988490801F06CFD10BDFFF7C4FFFBE74B
:1025DC0003001B6820221B6870B51900806A11402B
:1025EC00134234D103005E331980EFF310850123BD
:1025FC0083F3108804681D4E21683140216085F3F7
:10260C001088EFF3108583F310880468A168994350
:10261C00A16085F31088EFF3108483F310884025B4
:10262C0001688B68AB438B6084F3108803008C3398
:10263C001A60C36E012B0AD1EFF3108183F310885B
:10264C00102402681368A343136081F310880023DD
:10265C000367C36E012B05D103005C33198801F0AD
:10266C001FFD70BDFFF776FFFBE7C046FFFEFFFFC7
:10267C00F8B504002569A26823682A4365691968BE
:10268C00C0692A43664D024329400A431A605A68BE
:10269C006449A5690A40E1680A4363495A608B4260
:1026AC0001D0226A15439A68604E32402A430F25A6
:1026BC009A60DA6AAA43656A2A43DA625C4A9342F0
:1026CC0014D15C4B5A6D03231A4080231B02022A3F
:1026DC0000D195E0032A00D19EE0012A00D196E0BA
:1026EC00984200D078E0FFF75BFB55E0524A9342EA
:1026FC0000D189E08B4210D1C02280214D4B1201B8
:10270C005B6D090113408B4214D004D8002B06D109
:10271C00FFF746FB05E0934239D0012004E0FFF7B8
:10272C0051FA061E07D10020444BA36600236367B1
:10273C00A367F8BD424E626A424B5200D75A300032
:10274C003900FDF7BFFC032365686B438342E4D873
:10275C002B038342E1D300233A0030001900FDF72C
:10276C0061FE0027060E0B02334302026E0892191B
:10277C007B41100019002A003B00FDF753FE324B41
:10278C00C218324B9A42C8D82368D860CBE780264F
:10279C003602D0E7FFF716FA0028C4D0626A294B3C
:1027AC005200D15AFDF78EFC656840006B08C018CA
:1027BC002900FDF787FC0200254B103A9A42ACD851
:1027CC000F23020000079A4393B2400F2268034381
:1027DC00D360A8E71A48E1E7FFF7E2FA0028A2D095
:1027EC00626A184B5200D15AFDF76CFC65686B0895
:1027FC00C0182900FDF766FC0200154B103AC1E722
:10280C009842E7D00E48EBE780231B0268E798421A
:10281C00C0D0FFF7D7F9E1E79842BFD01800DFE747
:10282C00F369FFCFFFCFFFFF00800040FFF4FF11E3
:10283C00003801400010024000440040010001003B
:10284C000024F400E455000800FDFFFFFFFC0F001E
:10285C00EFFF0000836A30B51A0706D50168284CD3
:10286C004A682240846B22434A60DA0706D5016825
:10287C00244C4A682240C46A22434A609A0706D50F
:10288C000168214C4A682240046B22434A605A0773
:10289C0006D501681D4C4A682240446B22434A60AD
:1028AC00DA0606D501681A4C8A682240C46B2243AA
:1028BC008A609A0606D50168164C8A682240046C18
:1028CC0022438A605A0610D50168134D4A68446C3D
:1028DC002A4022434A6080225203944205D14A681E
:1028EC000E4C2240846C22434A601B0606D50268BB
:1028FC000B4953680B40C16C0B43536030BDC04651
:10290C00FF7FFFFFFFFFFDFFFFFFFEFFFFFFFBFF52
:10291C00FFEFFFFFFFDFFFFFFFFFEFFFFFFF9FFF5B
:10292C00FFFFF7FFF7B504000D00170000932268B6
:10293C00D3692B405B1B59424B41BB4201D0002059
:10294C0026E0089B0133F3D0FFF79CFD009BC01AD7
:10295C00089B98422DD8002B2BD023681A6852075D
:10296C00E5D52A004021403A8A43E0D0DA690826AE
:10297C0011003140019132420BD020001E62FFF752
:10298C00B7FD230090331E60002301208434237094
:10299C00FEBD8022D96912011142C8D01A622000F2
:1029AC00FFF7A6FD2300202290331A60019B84348C
:1029BC0023700320ECE70000030073B5002604002D
:1029CC0090331E60FFF75EFD236805001B681B0734
:1029DC001FD58021284B320000938903030020006F
:1029EC00FFF7A0FFB04214D0EFF31081012383F363
:1029FC0010888020226813688343136081F3108849
:102A0C002300202288331A6003200023843423708F
:102A1C0076BD260023688C361B685B0723D5802186
:102A2C00154B0022009320002B00C903FFF77AFFFF
:102A3C00002818D0EFF31080012282F3108821684F
:102A4C000E4D0B682B400B6080F31088EFF3108059
:102A5C0082F3108821688B6893438B6080F3108815
:102A6C0020233360D0E723002022002088331A6013
:102A7C003260E0662067C8E7FFFFFF01DFFEFFFF63
:102A8C0070B5041E01D1012070BD050088352B687E
:102A9C00002B04D102008432137000F0B1FB24230C
:102AAC00012122682B6013688B431360A36A002BEF
:102ABC0002D02000FFF7CEFE2000FFF7D9FD012841
:102ACC00E1D0236807495A6820000A402A215A603D
:102ADC009A688A439A60012219680A431A60FFF7C0
:102AEC006BFFD1E7FFB7FFFFF8B51300020006003C
:102AFC0005005C3281650F00138022210022903684
:102B0C008C3532602960011D0400C86F904213D0CF
:102B1C001D498263C1621D493A0001631C4941632E
:102B2C0021682431FFF790FB002805D010230120E9
:102B3C003360DB182B60F8BD2369002B0BD0EFF34F
:102B4C001081012383F310882268FF33106803433C
:102B5C00136081F31088EFF31080012383F3108846
:102B6C0021688A681A438A6080F31088EFF3108119
:102B7C0083F3108822683F3390680343936081F39A
:102B8C0010880020D7E7C046DD250008BB250008CB
:102B9C0067250008F7B50700436E04006A37002B61
:102BAC0004D10120388068342080F7BD03680B4EB7
:102BBC009A689B680A4D5B0FF05CE95CC00001925F
:102BCC00FDF70AFB019B38801B015B0FF05CE95C95
:102BDC00C000FDF701FB80B2E5E7C04604560008D3
:102BEC00FC55000870B504008434227803000220E0
:102BFC00012A11D01D002422012688352A601A686A
:102C0C0011681068B04310600448014000205866F9
:102C1C00202311602B60207070BDC046FFFFFFDFCA
:102C2C00F8B5050084350B0029780222012915D04E
:102C3C000600012104688836223232602768226837
:102C4C008A432260A168C900C9081943A160FFF733
:102C5C00A1FF20230022276033602A701000F8BDEA
:102C6C00F8B5050084350A0029780223012915D00E
:102C7C0006000121046888362233336027682368F4
:102C8C008B432360A168064B19401143A160FFF7E9
:102C9C0081FF20232760336000232B701800F8BDC0
:102CAC00FFFFFFF103008C331B6870B5040002209A
:102CBC00202B02D1002901D1012070BD002AFBD0AC
:102CCC008020A56801234001854204D12069002899
:102CDC0001D11942F0D1E366002320002367FFF7EE
:102CEC0003FF0028E9D1E26E012AE5D11023216807
:102CFC000B62EFF3108182F310882268146823436F
:102D0C00136081F31088D8E730B593B038220021D6
:102D1C0004A802F0CFFB10220021684602F0CAFB87
:102D2C0080208000FFF72CFB80235B00079300239F
:102D3C0008930D9308330E9380239B020F938023EB
:102D4C009B0410938023022540229B0504A8049524
:102D5C0009920B950C951193FEF710FD002801D0EC
:102D6C0072B6FEE707230290039029006846009391
:102D7C000195FEF76BFF002801D072B6FEE713B089
:102D8C0030BD10B5FFF75EFBFFF7BEFFFA208000E9
:102D9C00FFF77EFB00F01CF800F0E6F800F0FAF903
:102DAC0000F02CF800F0FEF800F098F900F052FB5F
:102DBC0000F0F0FBFCE70000034B026810B59A42F0
:102DCC0001D1FFF753FB10BD0048014072B6FEE77E
:102DDC000121094B82B05A6B0A435A635A6B0A4061
:102DEC000092009A5A6B49180A435A635B6B0B406A
:102DFC000193019B02B070470010024030B585B0C2
:102E0C000C22002101A802F055FB80222B4C2C4BEC
:102E1C0092032360226180230422DB056261E2615C
:102E2C002200636000232C3213700722626322009D
:102E3C0001253C322000A360E3602383A576636206
:102E4C00A3622363A3631370E364FEF769F800289D
:102E5C0001D0FFF7BBFF0023200001A901950293CD
:102E6C000393FEF7C5F9002801D0FFF7AFFF154B10
:102E7C0020000193042301A90293FEF7B9F900285D
:102E8C0001D0FFF7A3FF104B20000193082301A9E9
:102E9C000293FEF7ADF9002801D0FFF797FF0B4B1B
:102EAC00200001930C2301A90293FEF7A1F900283D
:102EBC0001D0FFF78BFF05B030BDC046D800002015
:102ECC000024014002000004001000B0002000B4F7
:102EDC0030B5050089B01422002103A802F0EAFAEB
:102EEC001D4B2A689A4234D180211C4B49031A6C21
:102EFC00A0200A431A641A6CC0050A4001210192F1
:102F0C00019A5A6B0A435A635B6B0B400293029B08
:102F1C00032303A903930493FFF750F88022104C6A
:102F2C00104B226192186261802223600523D2002B
:102F3C006360A261002320222000A360E360E261B1
:102F4C002362FFF727F9002801D0FFF73FFF2C651C
:102F5C00A56209B030BDC0460024014000100240FB
:102F6C007C0000201C00024007B501210C4B0920FD
:102F7C009A6B0A439A6300229B6B0B4001931100DE
:102F8C00019BFFF729FA0920FFF750FA00220A20CB
:102F9C001100FFF721FA0A20FFF748FA07BDC046D7
:102FAC000010024010B588B01022002104A802F0D5
:102FBC0081FA0C22002101A802F07CFA8023154C26
:102FCC00DB05012223600023524220006360A360D2
:102FDC00E2602361A361FDF71FFD002801D0FFF71C
:102FEC00F5FE802320005B0104A90493FDF736FE57
:102FFC00002801D0FFF7EAFE0023200001A901936D
:10300C000393FDF751FF002801D0FFF7DFFE08B056
:10301C0010BDC046880100208023026882B0DB0509
:10302C009A4208D10121054BDA6B0A43DA63DB6B58
:10303C000B400193019B02B07047C0460010024048
:10304C00074B026882B09A4208D10221054BDA6B19
:10305C000A43DA63DB6B0B400193019B02B07047B0
:10306C00000400400010024030B5040089B0142266
:10307C00002103A802F01EFA154B22689A4224D1B3
:10308C0001240225134BA0205A6B03A922435A6337
:10309C005A6BC00522400192019A5A6B2A435A631B
:1030AC005B6B04952B400293029BC0230794039304
:1030BC00FEF784FF032303930023074803A9049519
:1030CC00059306930794FEF779FF09B030BDC0460F
:1030DC0000040040001002400004005030B58BB0DA
:1030EC000C220021684602F0E5F91C22002103A8FD
:1030FC0002F0E0F9244C254B002523603F2363604C
:10310C00234B2000A560E3602561A561FDF7AEFCB3
:10311C00A84201D0FFF75AFE69462000009502959F
:10312C00FDF7C2FE002801D0FFF750FE00226023FD
:10313C00200003A90393049205920792FDF7FCFC6F
:10314C00002801D0FFF742FE0422200003A9FDF75E
:10315C00F3FC002801D0FFF739FE0822200003A958
:10316C00FDF7EAFC002801D0FFF730FE0C2220000E
:10317C0003A9FDF7E1FC002801D0FFF727FE200092
:10318C00FFF772FF0BB030BD3C0100200004004083
:10319C00E703000010B5174B174C0C222360174B9C
:1031AC002000636000236261A360E3602361A3617C
:1031BC00E36123626362A362FFF762FC002801D023
:1031CC00FFF704FE00212000FFF72AFD002801D0A4
:1031DC00FFF7FCFD00212000FFF742FD002801D085
:1031EC00FFF7F4FD2000FFF7FDFC002801D0FFF7EE
:1031FC00EDFD10BD0038014030020020A068060033
:10320C0070B5060092B01422002103A802F052F906
:10321C002822002108A802F04DF9214B32689A426D
:10322C003CD1012308A80893FEF7E8FD002801D043
:10323C00FFF7CCFD80211B4BC9011A6C00250A43FA
:10324C001A641A6C18480A400192019A0222596BAE
:10325C00114359635B6B03A913400293029BC02378
:10326C0004920393059506950795FEF7A7FE0F4C60
:10327C000F4B20002360322363604E33A560E56062
:10328C0023616561A561E5612562FEF783FFA842B4
:10329C0001D0FFF79BFD331DDC67A66212B070BD39
:1032AC00003801400010024000040050D4010020FE
:1032BC0008000240FEE7FEE77047704770470000C9
:1032CC0010B50248FFF708F810BDC046D401002025
:1032DC0010B50248FFF700F810BDC0467C00002076
:1032EC0010B50248FDF7A6FA10BDC046C402002076
:1032FC0001210A4B82B01A6C0A431A641A6C0A40F8
:10330C0080210092009ADA6B49050A43DA63DB6B81
:10331C000B400193019B02B07047C0460010024065
:10332C00802170B5204BC9021A6C86B00A431A640E
:10333C001B6C02AC0B400193050069462000019BFD
:10334C00FEF742FD059B002B28D1FEF729FD174EF9
:10335C00174B18493360184BF360FCF7B3FE00238E
:10336C000138706030003361B360B361FDF754FB1A
:10337C00041E10D13000FDF729FA041E0BD11620C3
:10338C00FFF754F8032D0DD8220029001620FFF763
:10339C0023F80A4B1D60200006B070BDFEF700FD3F
:1033AC004000D4E70124F6E700100240C4020020DC
:1033BC000048014040420F00E703000008000020D5
:1033CC000B490C4A0300521A0B4910B50868002827
:1033DC0001D10A480860C318934206D902F084F858
:1033EC000C2303600120404210BD0B60FCE7C0467B
:1033FC00000400000020002010030020880500209D
:10340C000D488546FDF7A4F80C480D490D4A0023DC
:10341C0002E0D458C4500433C4188C42F9D30A4A7D
:10342C000A4C002301E013600432A242FBD302F0E9
:10343C0061F8FFF7A6FCFEE700200020000000204A
:10344C005C000020985600085C00002084050020D9
:10345C00FEE7000030B54021C3B02F4800F086FED7
:10346C002E4800F055FE2E4BFE2418602D4800F01F
:10347C008DFD82222C4B00211860520001A802F015
:10348C0019F82A4B6A460493294B24210793752378
:10349C0052181370274B2849284A0A93284B0C9131
:1034AC000D920E9327912892FA2129936A460423B0
:1034BC00A40508942394234D234C521823483D9380
:1034CC00033B209525941370214C224B224D0B90DD
:1034DC00269001A83F9322953B9400F0FFF81F4BD8
:1034EC00F821186008233C9304333D936A46022369
:1034FC005218FF3313801A4B01A83F9300233B94BF
:10350C004093419300F0EAF80322164B1860164BD7
:10351C001A7043B030BDC04688010020D80000208E
:10352C002003002030020020240300200000A040D3
:10353C0000002F440000A04100004842CDCC4C3D7F
:10354C000AD7233CCDCCCC3D0000FA430000C84246
:10355C003C0100200000E04100C07944340300200D
:10356C000000584330030020380300200122064B92
:10357C0010B51A70054B064C1B68586A011C00F0FC
:10358C0007FF206010BDC046380300202403002034
:10359C001C030020F7B5FFF7E9FF444E444B30689D
:1035AC00196800F0C9F9434B434C1968206800F0C6
:1035BC00C3F9306800F0BAF9206800F0B7F93F4A57
:1035CC00336810783E4D3F4F032809D8FCF770FD47
:1035DC000219515D180000F0ACF9206800F0A9F94F
:1035EC002968306800F0A0F93968206800F09CF96F
:1035FC0000F046F900F002FD334A138801331380C2
:10360C00F7BD1800022100F09AF90221206800F0A1
:10361C0096F92B682D49181C0093FCF7DBFE00284B
:10362C0002D02A4B2B6000933B682849181C01934D
:10363C00FCF7D0FE00280AD0244B254900983B60AB
:10364C00FCF7DCFE0028CBD0224B2B60C8E72049CE
:10365C000098FCF7D3FE002801D01E4B2B601C49B0
:10366C000198FCF7CBFE0028BAD0164B194A1A6009
:10367C00B6E71800022100F062F90221206800F080
:10368C005EF9154B2B603B60AAE71800002100F097
:10369C0056F92068002100F052F93068002100F042
:1036AC004BF90021206800F047F999E7340300201A
:1036BC002C030020280300203003002038030020B6
:1036CC001C03002018030020140300200000A0C2DB
:1036DC000000C8420000B4420000A04170B50500D3
:1036EC008C20400001F02AFE8C22040000215200A4
:1036FC0001F0E0FE20002900E822303001F020FF2C
:10370C0028002300E83026C826C326C826C3026832
:10371C001A6061682068FDF7C3FBA1682068FDF79B
:10372C00BFFB2300064A1C3363610433A361137887
:10373C002000591C1170034A9B009C5070BDC04660
:10374C004C0300203C03002030B5FA254A680C6875
:10375C008B68AD00A84243DA364988420CDB00285E
:10376C000BDD2168082A51D03CD8002A41D0042A0C
:10377C0049D00022CA653DE0080021684042082A71
:10378C0019D005D8002A09D0042A12D0C86506E041
:10379C000C2A12D0102AF9D1886500E04863082B56
:1037AC0019D00CD8002B11D0042B11D00023CB65D1
:1037BC000DE08863F3E7C863F1E70864EFE70022E4
:1037CC000C2B0BD0102BF1D18A6500E04B6330BD74
:1037DC0000238B63FBE70023CB63F8E70A64F6E76F
:1037EC001548BEE700240C2A13D0102AC1D18C65D1
:1037FC0000E04A63082B18D00DD8002B11D0042BF5
:10380C0011D0C865E3E700228A63F3E70022CA639C
:10381C00F0E70C64EEE70C2B09D0102BF1D1886586
:10382C00D5E74863D3E78863D1E7C863CFE708647B
:10383C00CDE7C04617FCFFFFE703000010B501F011
:10384C00D5FA0C49041CFCF7D9FD002806D00A490E
:10385C00201C01F0CBFA041C201C10BD0749201CB5
:10386C00FCF7B8FD0028F7D00349201C00F090FDB0
:10387C00F1E7C046000034430000B443000034C3F9
:10388C00F7B50026274AB300D458002C3CD0636906
:10389C0000211F682369256B181C0193FCF794FD0C
:1038AC00002832D0E7612700022230373B7A1342DE
:1038BC0006D020002A1CE1693C3000F043F8051CBE
:1038CC003B7ADB0706D520002A1C216AA83000F0C1
:1038DC0039F8051C237B012B02D180231B06ED1824
:1038EC00A37B0020002B05D02300FC339969281CF6
:1038FC0000F04EFD606301F0BBFC0136210000B20C
:10390C00FFF722FF042EBDD1F7BD0199381CFFF73C
:10391C0095FF637BE061012BC5D180231B06C0188A
:10392C00E061C0E73C03002001637047012383730F
:10393C007047002383737047FC30816170473830C7
:10394C0001707047F0B5060089B06830141C059101
:10395C0000F036FC059B356B01907066191CF36307
:10396C007563201C01F042FA071C3063400031697A
:10397C004008FCF743FD002800D104E13168381CF5
:10398C0001F0E2F873680690191CF064381C04937B
:10399C0001F0DAF8019901F0D7F8B3687065291CC9
:1039AC00041C381C079301F021FA079901F0CCF89C
:1039BC00019900F0FBFE0290337DB06503935B0729
:1039CC000FD5391C281C00F0E3FC049901F0BCF85D
:1039DC00019901F0B9F8FC21890501F0B5F8041C36
:1039EC007065039B9B061CD5356A381C291CFCF79B
:1039FC00F1FC002815D1F169281C00F0C9FC011C50
:103A0C00051C381CFCF7E6FC0021002804D0391CEE
:103A1C00281C01F0EBF9011C201C01F095F8041C8A
:103A2C007065F3680493039BDB0733D5316D201C61
:103A3C0000F0AEFC011C051C069800F0A9FC0299D4
:103A4C0000F0A6FC410049080498FCF7C3FC0028D0
:103A5C000AD0211C0024381C01F076F8211CFCF73C
:103A6C00CDFC002800D07465B469281C211CFCF71F
:103A7C00C5FC002802D000233465736580231B0627
:103A8C00E418211C281CFCF7A5FC002802D00023FC
:103A9C0034657365039B9B070BD50599306C01F05E
:103AAC00A5F9079901F050F8019900F07FFE0290FA
:103ABC00B065039B5B061AD5B56A0198291C00F00A
:103ACC0067FCB16C041C281C01F03EF8211C00F0B2
:103ADC006DFE0299051C019801F036F8211C00F0CE
:103AEC0065FE011C281C00F053FC0290B065776D3C
:103AFC00316D381C00F04CFC011C3065069800F050
:103B0C0047FC029900F044FC039B041CF065DB06A7
:103B1C001BD5736A0198191C029300F039FC211C07
:103B2C00051C019801F010F8291C00F03FFE0299C9
:103B3C000190201C01F008F8291C00F037FE011C34
:103B4C00019800F025FC041CF0650498211CFCF77E
:103B5C0041FC002809D0049BF365059BF06D336490
:103B6C00B36D7764B36409B0F0BD8022120694463D
:103B7C00049B201C6344191C1D00FCF72BFC002823
:103B8C00EBD0F565E9E70027F7647765E5E700001A
:103B9C0010B5094C21680B0040331A78486CFFF7BC
:103BAC0081F8042123685B6C0433DB6F1A6813689B
:103BBC008B43136010BDC04674030020F8B5061C7F
:103BCC000D1C171C1C1CFCF705FC002820D1391CF3
:103BDC00301CFCF713FC00281CD1291C301C01F0F4
:103BEC0005F9211C061C069801F000F9011C301C7B
:103BFC0000F0AAFF291C061C381C01F0F7F8011C68
:103C0C00301C00F0D3FD011C201C00F0C1FB041C77
:103C1C00201CF8BD069CFBE7F0B50F1C85B0061CFC
:103C2C00111C381C0A9C02921D1CFCF7F1FB00288D
:103C3C002CD10B98211CFCF7D7FB002826D1291C72
:103C4C00381CFCF7E5FB002820D10298291CFCF756
:103C5C00CBFB00281AD1211C0B9801F0C7F8FC21D2
:103C6C00890500F071FF211C00F092FB311C0390C0
:103C7C00281CFCF7C3FB00280BD0039B2A1C0093C9
:103C8C00391C231C301CFFF799FF041C201C05B0A9
:103C9C00F0BD0B9B029A0093291C039BF2E70000DA
:103CAC00F0B5AC4BAC4E1968242230008DB001F04D
:103CBC0047FC3378C82B00D019E1B378162B00D011
:103CCC0017E13279F17813020B43A44C5B055B0DC1
:103CDC00079323807579D20869010A435205530D65
:103CEC0008936380B279F0799200AD098302154391
:103CFC001D436D056D0DA580327A4008D301184324
:103D0C004005400DE080737A120919010A435205EF
:103D1C00520D02922281B17AF27A4900DB090B43EF
:103D2C0051020B435B055B0D03936381337B92085C
:103D3C0099010A435205520D0492A281727B5B09D0
:103D4C00D20013430593E381F27BB17B13020B4347
:103D5C005B055B0D06932382337CD20859010A4321
:103D6C005205520D09926282727CB17C92009B09C1
:103D7C0013438A0213435B055B0D0A93A382F27C07
:103D8C004908D301194349054B0D0B93E382337D4D
:103D9C00120919010A435205520D2283717DB27D1D
:103DAC004900DB090B4351020B435B055B0D63833D
:103DBC00F37D920899010A435205520DA283327E7B
:103DCC005B09D200664E1343664FE38301F070FA31
:103DDC00654B664A664901960097FFF71DFF206206
:103DEC002800002501F064FA5F4B624A6049019695
:103DFC000095FFF711FF6062079801F059FA5A4BD2
:103E0C005C4A5B4901960097FFF706FFA062089891
:103E1C0001F04EFA544B554A554901960097FFF75D
:103E2C00FBFEE062069801F043FA4F4B524A5349AD
:103E3C0001960095FFF7F0FE2063099801F038FA1F
:103E4C00494B4D4A4D4901960095FFF7E5FEFA2284
:103E5C000A99012360639200914200DC0023220046
:103E6C0038321370F822039901239200914206D044
:103E7C000B0043498C46634459424B415B00210083
:103E8C0039310B7004990123914206D03C4A0B0046
:103E9C00944663445A4253415B0022003A321370F9
:103EAC00FA220B9901239200914200DC002322009C
:103EBC003B321370F822029901239200914206D0F2
:103ECC000B002F498C46634459424B415B00210047
:103EDC003C310B7005990123914206D0284A0B0006
:103EEC00944663445A4253415B003D3423700DB0F9
:103EFC00F0BD142B27D1F178184B224A11701A00FF
:103F0C0031793F3211701A007179403211701A00F8
:103F1C00B179413211701A00F179423211701A00E4
:103F2C00317A433211701A00717A443211701A00CE
:103F3C00B17A453211701A00F17A46321170327B27
:103F4C0047331A70D3E70B2BD1D1F2780E4B1A8072
:103F5C00CDE7C046740300204D03002078030020F9
:103F6C000000C8420000C8C2000078440000E244CF
:103F7C0000002E430060E2440000E04400003F4398
:103F8C0000F9FFFFB6030020C003002030B50B4A38
:103F9C0087B06B4602922422019068461A7000F09A
:103FAC0055F8074B186003A80200064B32CB32C2FF
:103FBC0000F00CF8044807B030BDC046AD3C00081A
:103FCC0074030020785500087803002010B50949C7
:103FDC0002000B781488581C08700C2159430648B1
:103FEC000C52538840184380536843609368836035
:103FFC0010BDC046C6030020C803002070B50024C5
:10400C000C250F4B1B78A34200D870BD0D4B6421BF
:10401C001888421C1A80FCF7DBF889B20029F4D10D
:10402C002A006243084B9B185A88002A04D0013A94
:10403C005A800134E4B2E4E75A6898689047F8E78C
:10404C00C6030020C4030020C803002070B505007F
:10405C00502001F073F904005022002101F02AFADB
:10406C0023002A78686840330B4960641A70AB6887
:10407C00A3640B785D1C0D7008499B005C502100FB
:10408C00FEF710FE0421636C20000433DB6F1A680A
:10409C0013688B43136070BD080400200C040020CF
:1040AC00F7B5002500900191164B1B78AB4200D858
:1040BC00F7BD154FAE00F459009A636C93421DD1B5
:1040CC00A36C002B0AD09847104AF45913680021AE
:1040DC00013313602000019A01F0ECF92300403306
:1040EC001A782100606CFEF7DDFD0421BB595B6C76
:1040FC000433DB6F1A6813688B4313600135EDB220
:10410C00D2E7C046080400200C0400200404002060
:10411C0070B50500FDF780FA034C2800062221003B
:10412C00FDF7E6F9200070BD1404002001230B4AB2
:10413C0082B013700A4B0B491B681B685B6A0193B6
:10414C0001980B68984203D2074803680133036057
:10415C00019B0B600023137002B0704720040020F9
:10416C0038040020280400202404002070B50C0022
:10417C000D4B1860FCF7FEFA0C490D4B4C431C60C0
:10418C002000FBF79FFFFA210A4D890028602000D0
:10419C00FBF798FF084B094D1B782860002B01D1C9
:1041AC00FFF7C4FF70BDC0463804002040420F002A
:1041BC003404002030040020200400202C040020B3
:1041CC0037B504000A4B1B681B685B6A01930198A6
:1041DC002368C01A01F06CF8064B051C186801F036
:1041EC0067F8011C281C00F0E1FA019B23603EBD1E
:1041FC003804002034040020F0B557464E4645469E
:10420C00DE46E0B504000D009246994683B08B4221
:10421C0030D82DD049465046FCF742F9290006000B
:10422C002000FCF73DF9331A9846203B34D49B46CA
:10423C0053465A46934042461F00534693401E0035
:10424C00AF423BD8AF4200D179E05B46A41BBD41E5
:10425C00002B00DA76E00022002300920193012368
:10426C005A4693400193012342469340009329E020
:10427C008242CFD900220023009201930C9B002B89
:10428C0001D01C605D600098019903B0F0BCBB4686
:10429C00B246A946A046F0BD42469B4620239B1A37
:1042AC005246DA40414613004A468A4017004246BD
:1042BC001F43534693401E00AF42C3D90022002334
:1042CC00009201934346002BD8D0FB0772081A4387
:1042DC0046467B080EE0AB4201D1A2420CD8A41A90
:1042EC009D41012024196D410021013E24184D41AE
:1042FC00002E06D0AB42EED9013E24196D41002EA2
:10430C00F8D1009801995B4600196941002B24DB18
:10431C002B005A464646D3402A001C00F2405B460E
:10432C001500002B2ADB26009E4033002600474652
:10433C00BE403200801A9941009001919EE7A34241
:10434C00BCD882E74246202300219B1A0022009110
:10435C0001920122DA40019285E7424620239B1A02
:10436C002A0046469A402300F340464613432A004F
:10437C001C00F2405B461500002BD4DA2023424689
:10438C002F009B1B97402600DE403B003343CDE7BC
:10439C004A02F8B5530ACE4699464B00C90F474618
:1043AC00884646004502360E1B0E80B5C40F6F0AB8
:1043BC009209AD09F11A44454BD0002938DD002B88
:1043CC0000D174E0FF2E00D1BEE08023DB041A4341
:1043DC001B2900DCFDE0013D6B0100D4AFE00125A1
:1043EC006D42AD01AF093800FCF73CF83B000538D5
:1043FC008340864200DCD3E0B94D311A1D405A0788
:10440C0000D19EE00F221340042B00D199E004351B
:10441C006B0100D495E0481CFE2951D1FF200023EC
:10442C00C0051843E4072043C0BCB946B046F8BDEC
:10443C00002949D0991B002E72D1002D00D133E1F7
:10444C004C1E012900D159E1FF2900D14CE121007A
:10445C006CE0002900DC81E0002B55D1002A70D0E3
:10446C004B1E012900D12BE1FF296DD01B2B50DCF9
:10447C00190020235B1A10009A40C840531E9A4121
:10448C000243AD188023DB041D4200D1ADE0711C4A
:10449C00FE2EC3D001206A082840924D15400543DA
:1044AC006A0700D08BE01D42B5D1EF0834E0002A3A
:1044BC0047D04B1E012966D0FF2945D0190087E74C
:1044CC00C0B2AB015B0AABE7FE239C46701C030039
:1044DC006046184200D092E0002E00D0E7E0002D9C
:1044EC0000D119E1002A17D08023AF1ADB041F4238
:1044FC0000D142E14446551B00D187E001201D420A
:10450C00DFD10021EF0807E0FF2E1DD01B2900DCB6
:10451C0094E031000535EF087B025B0AC8B27FE7F7
:10452C00FF2B00D1E0E08020C00405431B2900DCF8
:10453C0088E0551E44461E00690100D54FE7310046
:10454C000435EF08FF29E7D1002F00D166E780235F
:10455C00DB033B435B02FF205B0A61E7002958D079
:10456C00991B002E00D089E0002D00D19DE04E1E3D
:10457C00012900D1A4E0FF2900D1B6E01B2E00DDFB
:10458C00B8E0310081E0AA1A530100D4AFE09701E2
:10459C00BF093800FBF766FF3B0005388340012656
:1045AC001D00811B20200131CD40411A8B40591E2A
:1045BC008B411D432AD000216B0700D1F0E00F2363
:1045CC002B40042B00D022E76B0100D523E7EF082A
:1045DC00A2E720235B1A10009A40C840531E9A4150
:1045EC000243AD1A6B0100D5FBE66B0700D1D5E099
:1045FC000F2331002B40042B00D008E7A1E7AF1AA2
:10460C007B014ED4002F00D0EDE6002400200023C7
:10461C0006E7FE23711C0B4221D1002E00D081E055
:10462C00002D00D19FE0002A00D1B2E0AB185A0156
:10463C0000D4B0E09B0101205B0AF1E68023DB048F
:10464C001A4316E720242800C840611A8D4029001F
:10465C004C1EA141014344461E00551AC2E7FF29D6
:10466C0000D1DBE6AF187F087B0705D00F233D1D7B
:10467C003B40042B00D064E7FF084DE7FF2B34D000
:10468C001B2937DC8020C004054328002026C840A5
:10469C00711A8D4029004D1EA94101431E008D1831
:1046AC00F0E64446571B9EE64446150049E7002DAC
:1046BC0046D1002A66D180230024FF20DB03AFE61D
:1046CC00AA18530113D5074F52081740530744D06B
:1046DC000F231340042B40D002213D1D31E7C0466F
:1046EC00FFFFFFFBFFFFFF7D44464F462CE70121F8
:1046FC00D70811E705321900D7080DE7571B7B01C6
:10470C0037D5BF01BF093800FBF7ACFE3B000538BD
:10471C0083404446013643E7002A00D175E74446FE
:10472C004F46F9E6002DE0D08023DB03002A17D09A
:10473C009F4200D20BE7994500D308E74F4606E7A6
:10474C008023DB03002A0BD09F4200D2FFE6994561
:10475C0000D3FCE644464F46F9E60221FF08DBE6AF
:10476C00FF203B435CE6002A00D14FE70021D7082D
:10477C00D2E644460121FF08CEE6002F00D07BE7AD
:10478C00002443E780234A46DB034446FF201343BF
:10479C0046E60021C0E60021DF08BDE63100D0E688
:1047AC0001206A0100D58BE62A00DFE7F0B546460A
:1047BC004F46D6464502C0B5C30F470098460E1C5F
:1047CC006D0A3F0E5BD0FF2F21D08023ED00DB0460
:1047DC001D43002399469A467F3F74027300640A76
:1047EC001B0EF60F002B20D0FF2B43D08022002075
:1047FC00E400D20414437F3B4246FF1A4B467240FE
:10480C000F2B00D99DE071499B00CB589F46002D82
:10481C005AD108239946063B74029A467300FF2727
:10482C00640A1B0EF60F002BDED1002C3BD10123AA
:10483C0042464946724019430E2918D864488900EB
:10484C0041588F465346022B00D1B8E0032B6ED053
:10485C0042462C00012B40D100200024C0052043EF
:10486C00D2071043E0BCBA46B146A846F0BDFF20C3
:10487C000024F3E7002C20D10223FF3FD8E7002DC2
:10488C0005D104239946033B00279A46A5E7280047
:10489C00FBF7E8FD7627431F9D4000237F42994696
:1048AC009A463F1A99E72000FBF7DCFD431F9C401A
:1048BC0076235B421B1A00209EE703234A461A43C9
:1048CC0091460320FC3397E70C239946093BFF27BD
:1048DC009A4682E703282CD0320038007F3000281B
:1048EC0047DD630704D00F232340042B00D004348E
:1048FC00230103D53800374B80301C40FE28B6DC32
:10490C00A401640AC0B2A9E780240022FF20E403BA
:10491C00A4E78023DB031D4201D01C420BD0802472
:10492C00E4032C4364024246FF20640A96E74646A1
:10493C002C008023DB031C4364023200FF20640A3A
:10494C008CE76D01600185422DD21B230024013FB1
:10495C000126290064006D00002901DB854201D38A
:10496C002D1A3443013B002BF3D16B1E9D412C437C
:10497C00B3E701231B1A1B2B00DD6DE721009E37CB
:10498C00D940BC400B00611E8C412343590704D015
:10499C000F211940042900D00433590113D49B0171
:1049AC0000205C0A5AE71A2301242D1AD0E7981E1E
:1049BC0043425841404232000024C0B24EE74246C6
:1049CC00FF2000244AE70120002447E70C5600088A
:1049DC004C560008FFFFFFF770B542004E024C002A
:1049EC0045026D0A120EC30F760A240EC90FFF2A58
:1049FC0010D0FF2C0CD00120A2420AD1B54208D114
:104A0C008B420FD0002A04D12800431E984100E0AD
:104A1C00012070BD0120FF2CFBD13543F9D14B4057
:104A2C001800F6E70020F4E730B5420044024D02CE
:104A3C00C30F4800640A120E6D0A000EC90FFF2A3C
:104A4C0018D0FF280AD0002A1ED100280AD1002D28
:104A5C0029D0002C2DD14800013830BD002D25D196
:104A6C00002A01D1002CF6D08B4219D001205B42D8
:104A7C001843F2E7002C19D1FF28F7D1002D15D1DE
:104A8C0000208B42F2D1E8E70028EFD08B42EDD129
:104A9C008242EBDC04DBAC42E8D80020AC42DCD236
:104AAC0058000138D9E7002CD7D0DFE7022040426C
:104ABC00D3E78B42DAD1EEE730B5420044024D0227
:104ACC00C30F4800640A120E6D0A000EC90FFF2AAC
:104ADC0017D0FF280AD0002A1BD100280AD1002D9C
:104AEC001DD0002C2DD14800013811E0002D0ED125
:104AFC00002A01D1002CF6D08B420CD15800013881
:104B0C0006E0002C03D1FF2805D1002D15D0022082
:104B1C0030BD002806D101205B421843F8E7002C79
:104B2C00F6D0F8E78B42F6D18242F4DCE6DBAC42FD
:104B3C00F1D80020AC42EBD2E0E700208B42EAD166
:104B4C00E6E78B42E7D1F2E7F0B54F464646D6464C
:104B5C004502C0B546000F1C6D0A360EC40F002E60
:104B6C0000D1CDE0FF2E72D08023ED00DB041D437D
:104B7C00002399469A467F3E7B025B0A98467B004F
:104B8C001B0EFF0F002B72D0FF2B00D1A9E07F3B37
:104B9C00F6184B460A2B00DD85E043468022DB00ED
:104BAC00D2041A434B4690467C400022022B0FDD68
:104BBC00494601238B40A621C9000B4200D072E06C
:104BCC00902189000B4200D0DAE08821194267D18C
:104BDC00280C42462D042D0C4346290012041B0CB4
:104BEC00120C51435D4342435843AD180B0C5B19F7
:104BFC009A4203D9802252029446604409041A0452
:104C0C00090C52189501691E8D411B0C920E1B1834
:104C1C0015439B011D431B0100D5CFE030007F30B5
:104C2C00002800DCB1E06B070BD00F2332002B40C7
:104C3C00042B06D004352B0103D5803210006A4BAF
:104C4C001D40FE2864DCAB015B0AC0B21FE0002DE6
:104C5C0000D08FE008239946063B9A467B025B0AFC
:104C6C0098467B00FF261B0EFF0F002B8CD1434672
:104C7C00002B5CD14A4601331A43914613000A2A91
:104C8C0011DC01227C40022B92DC00200023C005A9
:104C9C001843E4072043E0BCBA46B146A846F0BD31
:104CAC003C00454692465346022B31D0032B11D083
:104CBC00012BEAD030008030721C002866DD6B07B7
:104CCC00B9D00F232B40042BB4D1B4E70F2A7AD0E0
:104CDC003C0045468023DB032B435B02FF205B0A31
:104CEC00D5E74346FF36002B34D14A4602331343F3
:104CFC000A2BD8DC7C40002A0AD09946022257E7BE
:104D0C00002D08D104239946033B00269A4633E72D
:104D1C00FF200023BBE72800FBF7A4FB7626431FEC
:104D2C009D400023764299469A46361A24E740461F
:104D3C00FBF798FB4B46361A763E0A2BB3DC434600
:104D4C000538834098464B4600227C40022B00DD00
:104D5C002EE73DE703234A461A4313000A2AB5DC23
:104D6C0001229A40882113007C400322194200D171
:104D7C002EE795E70C239946093BFF269A46FBE65E
:104D8C0080230024FF20DB0381E7320001231B1A60
:104D9C001B2B00DD79E79E3229009540D9406A1E15
:104DAC0095410D436B0704D00F232B40042B00D0EF
:104DBC0004356B0113D50120002368E701236A0831
:104DCC001D40154376E78023DB031D4282D042460B
:104DDC001A4200D07EE73C00FF20134357E7AB019B
:104DEC0000205B0A53E7C046FFFFFFF7F8B54746C4
:104DFC00CE464B02460080B5C40F4702580A844683
:104E0C0048007A0A360EBF09000ECD0F9B09FF2809
:104E1C006DD001214D40311AAC423AD0002900DC52
:104E2C009CE1002800D19EE0FF2E00D188E080227A
:104E3C00D20413431B2900DCF6E0013F7A0100D4B5
:104E4C0079E001277F42BF01BB0998464046FBF73A
:104E5C0009FB434605388340864200DCCCE0B44F66
:104E6C00311A1F405A0768D00F221340042B64D00C
:104E7C0004377B0161D5481CFE2900D081E0FF205E
:104E8C000023C0051843E4072043C0BCB946B04614
:104E9C00F8BD002900DC79E1002876D1002B4CD03C
:104EAC00481E012900D147E1FF2949D01B2871DC9C
:104EBC0001001A002020CA40411A8B40591E8B4118
:104ECC001343FF188023DB041F4200D1B8E0711C90
:104EDC00FE2ED4D0012297483A407F080740174352
:104EEC007A0700D096E01F42C5D1FA0855E0310090
:104EFC00FF398946002B2CD101214D40AC4200D109
:104F0C00B4E0494600294CD0002E00D0F9E0FF2136
:104F1C00002F00D108E14A1E012900D156E1FF29DA
:104F2C0000D142E11B2A00DC24E15F1E2C000600AC
:104F3C007A0100D585E731000437FA08FF292CD116
:104F4C00002A9CD08023DB0313435B02FF205B0A07
:104F5C0097E7AC4200D1A7E0002922D0002ED6D092
:104F6C0062462C00EEE7002BE7D0481E012936D014
:104F7C00FF29E5D001005DE701203B007A0100D458
:104F8C0057E1C0B2BB015B0A7BE7FF2ED8D01B29CF
:104F9C0000DC9FE031000537FA0853025B0AC8B207
:104FAC006FE7FE20711C084254D1002E00D0B1E0F6
:104FBC00002F00D102E1002B00D1F9E08021FA1A78
:104FCC00C9040A4200D13BE10124DF1B2C40002F15
:104FDC0049D001200F42D5D10021FA08DDE7FF1A94
:104FEC007B0100D4DEE0BD01AD092800FBF73AFAE5
:104FFC002B000538834001262022811B0131521AD7
:10500C001F009340CF405A1E93411F432BD00021C9
:10501C007B07B1D00F233B40042B00D028E77B014A
:10502C0000D528E7FA08B8E71A002020CA40411A30
:10503C008B40591E8B411343FF1A7B0100D502E7AD
:10504C007B0700D10DE10F2331003B40042B00D036
:10505C000EE772E7FA1A9046520156D44346002BDB
:10506C0000D0F3E60024002000230AE7494600297B
:10507C001CD0002E00D002E7FF21002F55D04A1E75
:10508C00012959D0FF2900D190E01B2A00DD91E0C5
:10509C0011003A002025CA40691A8F40791E8F41B1
:1050AC0017430600FF180DE7002926D1FE20711CBE
:1050BC00084213D1002E00D096E0002F00D1B4E0AE
:1050CC00002B75D0FB185A0100D4B2E09B015B0A8F
:1050DC00FD38D6E68022D2041343EAE6FF2900D13C
:1050EC00CDE6FA185208530705D00F23171D1340AD
:1050FC00042B00D021E7D2084FE7002EBCD062462B
:10510C0020E72C00FF200023BBE60124DB1B984684
:10511C002C409BE6002F75D1002B00D096E080230D
:10512C000024FF20DB03ACE62C001F0005E7C04683
:10513C00FFFFFFFBFFFFFF7DFB185A0100D48DE042
:10514C004A4A5B081A40590700D18CE00F210B40EA
:10515C000D39042BCFD00221171DEEE6002900D10A
:10516C001FE7821B1100002E00D1D1E68021C9045B
:10517C000F43D7E639002024D140A21A97407A1E5B
:10518C0097410F432C000600DF1B56E700298DD0FA
:10519C00811B002E00D170E71B290BDC8022D2046E
:1051AC00174376E70121FA08F7E62C006246C7E6BA
:1051BC000021F2E605330100DA08EEE6002B00D1FF
:1051CC0050E70124002162462C40E6E6DA1B53012D
:1051DC0032D5920194092000FBF744F923000538DD
:1051EC0083402C00012607E7002FDFD0002B17D0BF
:1051FC008023DB039A4200D2A4E69C4500D3A1E6AF
:10520C0062469FE6002B0BD08023DB039A4200D230
:10521C0098E69C4500D395E6012462462C4091E625
:10522C008023DB03FF2013432BE60020002B00D14F
:10523C0027E60021DA08B0E62C000121D208ACE602
:10524C00002A00D10EE70021D208A6E68023624690
:10525C000124DB03FF2013432C4012E60121DA0862
:10526C009BE6310069E60221D20896E6FFFFFF7D3E
:10527C0041024200C30F490A0020120E7E2A03DDB0
:10528C009D2A02DD094A98187047802000040143CA
:10529C00952A07DC9620821AD1404842002BF3D184
:1052AC000800F1E7963A9140F7E7C046FFFFFF7F11
:1052BC0010B5041E0DD0FBF7D5F89E231B1A962BA8
:1052CC000CDC082834D0083884406402640AD8B254
:1052DC0001E000200024C005204310BD992B13DCF5
:1052EC00421F9440144A224061071CD00F212140D8
:1052FC00042918D00432D408520115D59F23640216
:10530C00181A640AC0B2E6E7020021001B32914071
:10531C000A00511E8A410521091ACC401443064A41
:10532C0022406107E2D1D4086402640AD8B2D2E701
:10533C006402640A8E30CEE7FFFFFFFB10B5034B0F
:10534C000100186800F026F810BDC0460C000020C3
:10535C0070B50F4E0D0031680400002902D100F029
:10536C00B1F830602900200000F0ACF8431C03D1E8
:10537C0001256D42280070BD0323C51C9D43A84226
:10538C00F8D0291A200000F09DF80130F2D1EFE797
:10539C003C040020F7B50322CB1C934308330500D3
:1053AC001F000C2B34D20C27B94233D8280000F044
:1053BC0071F8374E33681C00002C2FD139002800AF
:1053CC00FFF7C6FF0400431C5FD134680094009BB8
:1053DC00002B4AD1002C52D023682800E3180099E6
:1053EC00019300F06FF8019B834248D12368280099
:1053FC00FF1A3900FFF7ACFF013040D02368DB19EE
:10540C00236033685A68002A33D1009B336019E05B
:10541C00002BC9DA0C232B600020FEBD2168C91BB0
:10542C0020D40B290AD9E2192760A34204D1326097
:10543C0063681160536005E05A60F9E76268A34243
:10544C000ED13260280000F02DF8200007220B301E
:10545C00231D9043C21A9842DFD01B1AA350DCE7DD
:10546C005A60EFE723006468A6E7009C636800932A
:10547C00ADE71A005B68A342FBD10023DAE70C23EB
:10548C0028002B6000F00EF8C6E70760DAE7C0468C
:10549C004004002010B5024800F050F810BDC04682
:1054AC008005002010B5024800F049F810BDC04638
:1054BC008005002003008218934200D170471970B8
:1054CC000133F9E7002370B5064D040008002B608A
:1054DC00FDF776FF431C03D12B68002B00D0236013
:1054EC0070BDC0467C050020014B18687047C04653
:1054FC000C00002070B500260C4C0D4D641BA41044
:10550C00A64209D1002600F025F80A4C0A4D641B6E
:10551C00A410A64205D170BDB300EB5898470136D4
:10552C00EEE7B300EB5898470136F2E790560008C7
:10553C009056000894560008905600087047704723
:10554C00002310B59A4200D110BDCC5CC454013379
:10555C00F8E70000F8B5C046F8BC08BC9E4670479A
:0C556C00F8B5C046F8BC08BC9E4670476D
:105578006400C8009D3B0008000000000000000017
:105588000000000000000000000000000100000012
:1055980002000000030000000400000000000000FA
:1055A80000000000000000000000000000000000F3
:1055B80000000000000000000000000001000000E2
:1055C80002000000030000000400000006000000C4
:1055D80007000000080000000900000001000200A8
:1055E8000400060008000A000C001000200040001B
:1055F80080000001080402040801010101010103FF
:10560800070100004E4900087A480008644800086D
:10561800E048000864480008144900086448000885
:10562800E04800087A4800087A4800081449000849
:10563800E048000850480008504800085048000852
:105648001E4900087A4800087A480008644800089B
:10565800BA4900086448000814490008644800086A
:10566800BA4900087A4800087A480008144900082E
:10567800BA49000850480008504800085048000837
:085688007CEBFF7F0100000034
:0456900039050008D0
:045694000D050008F8
:105698000024F400010000000400000010000020B5
:1056A8000000000044040020AC0400201405002081
:1056B80000000000000000000000000000000000E2
:1056C80000000000000000000000000000000000D2
:1056D80000000000000000000000000000000000C2
:0C56E800000000000000000000000000B6
:040000050800340DAE
:00000001FF
